:020000040000FA
:1000000080314028003008007E1480312100901E8D
:1000100010282000901E102897317F2780313E281D
:100020000B1F3E282100111E1F282000111E1F2813
:10003000210055088A0054080A0080313E2821001A
:10004000911E2C282000911E2C28210053088A0084
:1000500052080A0080313E282100921F36282000D5
:10006000921F362897318B2780313E282100111CA2
:100070003E282000111C3E2888316A207E1009008D
:10008000803142289631D7268031EF00F03084004D
:1000900097308500D63086000030870010309731C9
:1000A0000C278031B03084008930850050308600C4
:1000B000013087001B3097310C278031F801F9019E
:1000C000FA01FB01FC01FD012030840000308500B5
:1000D0002C30973106278031A03084000030850015
:1000E000363097310627803120308400013085007A
:1000F0003030973106277E10200080317F288A31EA
:100100003D2280318B170B1778302000CC000B304C
:10011000CD009631FA2680311A302000CC0007300D
:10012000CD009731002780318431E12480312000D7
:10013000C901C8013C30EA006A08C7002C30210020
:10014000CE000130CF002000C601C5011E30AC003A
:100150000030AD001430AA000030AB001430A8000D
:100160000030A9002100CC01CD012000A601A7018B
:10017000A401A50128302100C8000030C900CA012F
:10018000CB01C601C70100302000A3000030A2004F
:100190000030A1000030A00001308B3134238031C9
:1001A00020005008A0075108A13D0030A23DA33D0A
:1001B00001302100CC070030CD3D04304D064C0409
:1001C000031D7E2920002008EA002108EB002208F8
:1001D000EC002308ED000A30EE00ED37EC0CEB0CE0
:1001E000EA0CEE0BED286D08A3006C08A2006B086A
:1001F000A1006A08A000A31B0A292308031D0D29DA
:100200002208031D0D292108031D0D29CC302002D1
:1002100003180D29C501C50A7229A31B1B29230830
:10022000031D0A292208031D0A29E2302002033097
:10023000213B03180A29C5012108CD002008CC0064
:1002400083314123803120002308CF002208CE00D3
:100250002108CD002008CC0021003F082000D30059
:1002600021003E082000D20021003D082000D100DE
:1002700021003C082000D0008C3144248031200033
:100280004F08A3004E08A2004D08A1004C08A00092
:100290002008210038022000EA0021082100393B13
:1002A0002000EB00220821003A3B2000EC0023084C
:1002B00021003B3B2000ED000A30ED36EC0CEB0C4E
:1002C000EA0C890B5D296D08A3006C08A2006B087D
:1002D000A1006A08A00021082100C7002000200812
:1002E0002100C60000302000A3000030A200003032
:1002F000A1000030A0002100CC01CD012000450369
:10030000031D952926082704031D8C29C601C60A4A
:100310005830A4000230A50024082504031D9529A7
:10032000C6012C30A6000130A700450803195D2A3C
:10033000762A4708031DA7290130C00204308F31F7
:100340002F2780313C302000EA006A08C7004008AF
:10035000031DB7290130EA006A08BF0705308F3155
:100360002F2780313C302000EA006A08C0000830A6
:100370003F020318BD29C601C60A08303F02031C0C
:10038000762AC601C401C40A3C30EA006A08C000EB
:10039000BF0100308F312F27803104308F312F275C
:1003A000803105308F312F278031762A6030DF2968
:1003B0004C30DF293830DF292430DF29103021008C
:1003C000CA00FF30CB00FD294308EA00EB016B08AF
:1003D000003A0319EC29FD296A08013A0319D629C4
:1003E000033A0319D829013A0319DA29073A0319FC
:1003F000DC29013A0319DE29FD2920004608031DE6
:100400001F2A21004708803A2000EA0021004908FD
:10041000803A20006A02031D102A21004808460283
:100420000318162A20004103031D1F2A0230200052
:10043000EA006A08C6001430AA000030AB0002309F
:100440004606031D2F2A2A082B04031D2F2AC60146
:10045000C60AC101C10A03308F312F278031200025
:100460004603031D522A21004B08803A2000EA006F
:1004700021004708803A20006A02031D422A210019
:1004800046084A02031C522A03302000EA006A0888
:10049000C6001430A8000030A900C10103308F311C
:1004A0002F278031033020004606031D762A2808B6
:1004B0002904031D762AC601762A4408EA00EB01C6
:1004C0006B08003A0319652A762A6A08003A03196C
:1004D0009929013A0319E429762A762A22000C1177
:1004E0008D13872A22000C158D17872A20004608B5
:1004F000EA00EB016B08003A03197F2A872A6A0891
:10050000003A03196E2A013A0319722A872A89319F
:10051000E7218031003A0319CC2800308931CB2102
:100520008031003A0319D82A20004908031DD82A2F
:100530000330EA006A08C9002C082D04031DA52A0F
:100540001E30AC000030AD00D82A4403031DBB2A86
:100550004208031DBB2A1E30AC000030AD00013044
:10056000EA006A08C30706304302031CB92AC30124
:10057000C30A0130D52A4408031DD82A4208031DA6
:10058000D82A1E30AC000030AD00C401C40A3C3093
:10059000EA006A08C000BF0100308F312F27803188
:1005A00004308F312F27803105308F312F27803154
:1005B00001308931CB218031003A0319192B2000F9
:1005C0004908031D192B0330EA006A08C9002C08EA
:1005D0002D04031DF02A1E30AC000030AD00192B95
:1005E0004403031DFC2A4208031DFC2A1E30AC00F4
:1005F0000030AD00C401082B4408031D192B42082C
:10060000031D192B1E30AC000030AD00C401C40A1C
:100610003C30EA006A08C000BF0100308F312F274C
:10062000803104308F312F27803105308F312F27D3
:10063000803102308931CB218031003A0319CC2836
:1006400020004908031DCC280330EA006A08C900CD
:100650001E30AC000030AD0003304806031DCC282E
:10066000C8014208031D3B2BC201C20A02308F3170
:100670002F278031CC28C20102308F312F278031C3
:10068000CC2820004C084D040319080003304D020B
:10069000C83003194C02031C5F2B00302100BF003F
:1006A0000030BE000F30BD00E030BC000030BB00A9
:1006B0003730BA007630B9000030B8000800033097
:1006C0004D02A13003194C02031C782B003021008D
:1006D000BF000030BE000930BD00C730BC00003094
:1006E000BB002030BA005F30B9003330B8000800DA
:1006F00003304D02643003194C02031C912B00306F
:100700002100BF000030BE000630BD008830BC00B4
:100710000030BB001430BA009B30B9003330B80051
:10072000080003304D02113003194C02031CAA2BA0
:1007300000302100BF000030BE000430BD00CB30CF
:10074000BC000030BB000E30BA00B330B9008530B9
:10075000B800080002304D02AA3003194C02031CF5
:10076000C32B00302100BF000030BE000330BD00AD
:10077000E630BC000030BB000B30BA00F430B900EA
:10078000B830B800080002304D02393003194C026D
:10079000031CDC2B00302100BF000030BE00033002
:1007A000BD008930BC000030BB000A30BA00FB300D
:1007B000B9002930B800080001304D02C9300319D2
:1007C0004C02031CF52B00302100BF000030BE009E
:1007D0000330BD009030BC000030BB000B30BA00CD
:1007E0000830B900C330B800080001304D02643051
:1007F00003194C02031C0E2C00302100BF000030F6
:10080000BE000330BD00F230BC000030BB000B3036
:10081000BA00B430B9004830B800080001304D02C9
:100820000F3003194C02031C272C00302100BF009D
:100830000030BE000430BD00B530BC000030BB004D
:100840000C30BA00C130B9007B30B800080000306D
:100850004D02CC3003194C02031C0800003021006B
:10086000BF000030BE000530BD00F130BC000030DC
:10087000BB000E30BA000D30B9000A30B8000800D5
:1008800020005908093E8600013087000108803A9F
:10089000DA0059080E3E8600013087000103FF3A56
:1008A000803ADA0203187F2C59080A3E860001308C
:1008B00087000130810741310318810A59080A3E37
:1008C000860001308700403FDA00413FDB00003006
:1008D0005B02413003195A02031CBE2C59080A3E20
:1008E0008600013087000030C03FC13F59088600B4
:1008F0000130870001088C31AA248431BE2C5908AC
:10090000093E8600013087000108DA00DB01DA1BAE
:10091000DB0359080E3E8600013087005B08803AF1
:10092000803C031D952C5A0801020318B52C023097
:100930002000DA005908023E8600013087005A087C
:10094000810059080A3E8600013087000030C03F10
:10095000C13F59088600013087000108DA005A08B3
:10096000CC009631D4268431BE2C200059080A3E92
:100970008600013087000030C03FC13F2000590889
:100980000C3E860001308700013081074131031899
:10099000810A59080C3E8600013087001600403A53
:1009A000DA001600DA04031D080059080C3E860020
:1009B000013087000030C03FC13F5908853178259C
:1009C000080000302000CC00F030CD009731C12766
:1009D0008431FF3A031DF02C2000C401C40AFC2C12
:1009E00000302000CC00F030CD009731C127843199
:1009F0002000CE004E08C4000130CC00F030CD0005
:100A00009731C1278431FF3A031D082D0330102D83
:100A100001302000CC00F030CD009731C127843167
:100A20002000CE004E08C3000230CC00F030CD00D4
:100A30009731C1278431FF3A031D212D2000C201C7
:100A40002D2D02302000CC00F030CD009731C12791
:100A500084312000CE004E08C2000330CC00F030BC
:100A6000CD009731C1278431FF3A031D3B2D200073
:100A7000C101C10A472D03302000CC00F030CD0069
:100A80009731C12784312000CE004E08C1000430C8
:100A9000CC00F030CD009731C1278431FF3A031DDF
:100AA000532D3C305B2D04302000CC00F030CD00C5
:100AB0009731C12784312000CE004E08C000053098
:100AC000CC00F030CD009731C1278431FF3A031DAF
:100AD0006C2D2000BF01080005302000CC00F03054
:100AE000CD009731C1272000CE004E08BF0008007E
:100AF0002000D2008B1FC32D8B135208053E8600A9
:100B000001308700403FCC00413FCD00423FCE0046
:100B1000433FCF000430CF36CE0CCD0CCC0C890B2C
:100B20008B2D5208053E8600013087004C0881025B
:100B300041314D08813B41314E08813B41314F08E5
:100B4000813B7D315208033E860001308700403FE3
:100B5000CC00413FCD004C08CE004D08CF00D00165
:100B6000D1015208053E8600013087004E088107FA
:100B700041314F08813D41315008813D413151089B
:100B8000813D8B1708005208053E86000130870022
:100B9000403FCC00413FCD00423FCE00433FCF001D
:100BA0000430CF36CE0CCD0CCC0C890BD12D520895
:100BB000053E8600013087004C08810241314D0816
:100BC000813B41314E08813B41314F08813B7D31B2
:100BD0005208033E860001308700403FCC00413F71
:100BE000CD004C08CE004D08CF00D001D1015208F5
:100BF000053E8600013087004E08810741314F08CD
:100C0000813D41315008813D41315108813D08000D
:100C100021009D18082E1C08F7001B08F600200074
:100C20004A1808007C08031D242E802E210063082A
:100C30008A0062080A008631352E210061088A0088
:100C400060080A008631352E7C080139F400F50170
:100C50007508003A03192D2E352E7408003A031931
:100C6000162E013A03191D2E352E0930F400740892
:100C7000F0007D0888310E208631553E8600013017
:100C8000870001087C0603197D2E7C1C662E00302F
:100C9000F4000430F50076087402F6007708753B1E
:100CA000F700760821005002F0007708513BF10070
:100CB0008831EA20863170082000B6077108B73DF8
:100CC00077082100D1007608D000782E7608200021
:100CD0003402F0007708353BF1008831EA207008D3
:100CE0002000B6077108B73D7708B5007608B40054
:100CF00076082000B8077708B93D0130FC020800EB
:100D00007608B8077708B93D76083402F00077080E
:100D1000353BF1008831EA2070082000B6077108E1
:100D2000B73D4A1408002000D6005608053E86004C
:100D300001308700403FCC00413FCD00423FCE0014
:100D4000433FCF000430CF36CE0CCD0CCC0C890BFA
:100D5000A32E5608033E860001308700403FD00096
:100D6000413FD1005008D2005108D300D401D50131
:100D70004C08D2024D08D33B4E08D43B4F08D53B1C
:100D80005508DA005408D9005308D8005208D70093
:100D90005708CC005808CD005908CE005A08CF009B
:100DA00056080F3E860001308700010ADB2ECF3740
:100DB000CE0CCD0CCC0C890BD72E4F08DA004E0888
:100DC000D9004D08D8004C08D700DA1BFC2E5A0871
:100DD000031DF42E5908031DF42E5808031DF42E8C
:100DE00080305702031CFC2E0030DA000030D9009E
:100DF0000030D8007F30D700DA1F102F8030570224
:100E0000FF30583BFF30593BFF305A3B0318102F3F
:100E1000FF30DA00FF30D900FF30D8008030D70033
:100E20005708CC005608093E8600013087004C0860
:100E30008100080003302000480203182B2F0230E5
:100E4000893195218731003A03192B2F0130F200A7
:100E500072082000C8070230893195218731003A95
:100E6000031D342F2000C80120002C082D04031975
:100E70003D2F0130AC020030AD3B47080319422F33
:100E80000130C70221004E084F0403194B2F0130D7
:100E9000CE020030CF3B2000240825040319572F31
:100EA0004603031D572F0130A4020030A53B26083E
:100EB00027040319622F4608031D622F0130A60282
:100EC0000030A73B2A082B040319792F023046066D
:100ED000031D792F0130AA020030AB3B0310220022
:100EE0008D1F0314031C772F22008D17792F2200EA
:100EF0008D13200028082904031908000330460632
:100F0000031D08000130A8020030A93B0310220095
:100F10008D1F0314031C8F2F22008D170800220041
:100F20008D1308002000DA003708D5003608D400F9
:100F3000D536D40CD536D40C36085407D60037082D
:100F4000553DD7006F08D4005408DB003908D9009C
:100F50003808D800DD015D08003E84009830031891
:100F6000013E85000008D4005408EF07C8306F0226
:100F70000318BE2FC830D4005408EF070530D40042
:100F80005408DC005A088F3191278731003A031941
:100F9000D12F01302000DC025C08031DC22FFC3081
:100FA0000800200037085702031DD82F36085602C4
:100FB0000318E62F3708D7003608D6006F08D4008C
:100FC0005408DB003908D9003808D8000130D400B3
:100FD0005408DD0705305D02031CAB2F5B08D4000D
:100FE0005408EF005908B9005808B800003008004C
:100FF000320091019201930194019501960108003C
:101000002000D7008B1F0A288B1357088D31252508
:101010008B17080057088D3125250800F200F301D1
:10102000721C16287008F1007108F3070310F00D08
:101030000310F20C7208031D10287308080020002A
:10104000CF00CE014F1C28284C08CD004D08CE07FC
:101050000310CC0D0310CF0C4F08031D22284E089F
:1010600008002000D10003305102031808000930A5
:10107000D0005008CC00510888311F20583E86000F
:1010800001308700011408002000D3005308883184
:101090003120883109302000D2005208CC0053089A
:1010A00088311F208831503E973136270800FF30A5
:1010B00028009D009C012000921321009217D3303C
:1010C0002000CC001630CD009631F42604302800E4
:1010D0009E000800200011107908F1007808F00047
:1010E0009731A32788312000300831040319080004
:1010F00031088A0030080A0088310800803020005A
:1011000098001E3096009501901221009016D13063
:101110002000CC001630CD009631FA268030200019
:101120009700080050302000CD004D08CE006230FE
:10113000CD004E084D02031C08004E08973136279B
:10114000883109302000CD004D08CE0797282000B7
:10115000D100033051020318BB280930D0005008D9
:10116000CC00510888311F20583E8600013087008E
:10117000010C01390800003008002000E80168086F
:101180008D31C6258831003A0319C828003008007F
:1011900001302000E7006708E80703306802031CFD
:1011A000BF280130080023001908F00020003B0888
:1011B000A83E86008701700881000130F0007008A9
:1011C000BB0708303B020318BB010130F000700878
:1011D000FA0708007108803AF20080307202031D9D
:1011E000F32801307002031808007009F200710939
:1011F000F300F20A0319F30A7208F0007308F10011
:1012000008002000CC004C0A860001308700403FD7
:101210002100E200413FE30020004C08033E86002D
:1012200001308700403F2100E000413FE10008001D
:101230002000D0015008CF000330CF35FF3E031D02
:101240001D294F35203E8B31C123893101302000CB
:10125000CF004F08D00703305002031808001A29A6
:1012600020009C0186309A00E83099001A08F900A5
:101270001908F800111021001114D2302000CC0000
:101280001630CD0097310027C13020009B000800A8
:1012900020004D08803ACE0080304E02031D5229B6
:1012A00001304C020318080020004C09CE004D0903
:1012B000CF00CE0A0319CF0A4E08CC004F08CD004C
:1012C00008002000D30003305302031878290930A6
:1012D000D2005208CC00530888311F20563E8600A9
:1012E00001308700403F2000D000413FD10008007E
:1012F000D001D10108002000CC008B1F8B298B135B
:101300004C08063E8600013087003808C03F390887
:10131000C13F8B1708004C08063E8600013087004D
:101320003808C03F3908C13F0800F100033071029E
:101330000318AE297108F0000330F035FF3E031D9D
:101340009D297035223E860001308700023001065B
:10135000031DAC29013008000030080000300800EF
:1013600000347A340A34D7340A3420340034003458
:101370000034013499340A34F6340A342034003409
:101380000034003402345B340A34B8340A34203474
:101390000034003400342000CD0003304D02031827
:1013A000E5294D08CC000330CC35FF3E031DD42980
:1013B0004C35223E86000130870002300106031DB5
:1013C000E329013008000030080000300800200048
:1013D000CB01CB0A8831BD208931003A031DF229A7
:1013E000003008009731D0278931803102208931BF
:1013F0002000E9006908CB008831922089319631BC
:10140000E32601300800083020003C0203181D2AA2
:101410003D08B03E86008701010823009A00013094
:10142000F00070082000BD0708303D020318BD0120
:101430000130F0007008BC070800210011120800FC
:1014400000302000CC009030CD003030CE00003095
:10145000CF0020308B31E9238A312000D701570893
:101460008C31AA248A3101302000D6005608D707D3
:1014700003305702031808002F2A8731F8278A31D2
:101480008B319C238A31973175278A319631EA2630
:101490008A31883157208A3197313F278A31893103
:1014A00030218A3188317E208A318C31E1248A31A1
:1014B00097319727080022008D16210035309D00B6
:1014C0000330890B612A00008D30840000308500D4
:1014D0000D30860001308700393000179D00003242
:1014E0000032000021009D140032000022000D1780
:1014F0000013080022000D17210039309D00033031
:10150000890B802A00008D308400003085000D306A
:10151000860001308700313000169D000032003215
:10152000000021009D140032000022000D16001260
:10153000080022000D16210031309D000330890B78
:101540009F2A00008D308400003085000D30860019
:1015500001308700353080169D00003200320000D7
:1015600021009D140032000022008D168012080018
:1015700022008D12210035309D000330890BBE2AD8
:1015800000008D308400003085000D308600013071
:101590008700393000179D00003200320000210022
:1015A0009D140032000022000D13001308002200D9
:1015B0000D13210039309D000330890BDD2A000016
:1015C0008D308400003085000D30860001308700AA
:1015D000313000169D0000320032000021009D14C1
:1015E0000032000022000D120012080022000D122D
:1015F000210031309D000330890BFC2A00008D3022
:101600008400003085000D308600013087003530C1
:1016100080169D0000320032000021009D1400322F
:10162000000022008D12801208002000CF004F0819
:10163000CE00CE0DCE0D21001D0820004E06033930
:101640004E0621009D001D140630890B252B00320B
:1016500021009D149D182A2B1C082000CD0021007C
:101660001B082000CC0008002000D600412B0530CC
:101670008B3115238B3120004D08D5004C08D40048
:10168000512B5608D200D3015308003A0319492BB5
:10169000512B5208013A0319372B033A0319512BE6
:1016A000512B5508D1005408D000080000308B1B86
:1016B00001302000CF004D083100920020004C087E
:1016C0003100910020004E083100930015171515C8
:1016D0008B1355309600AA309600951495186E2BF2
:1016E000151120004F0C031C8B1303188B170800D7
:1016F000200049080319942B0030893195218B3142
:10170000003A031D942B0130893195218B31003A29
:10171000031D942B0230893195218B31003A031D32
:10172000942B01302000C90220002C082D04031D39
:10173000080022008E01080022008C018D018E011C
:10174000313021008C008D018E01FF3023008E008E
:1017500080308D0036308C0024008D018C018E018C
:1017600025008C018D018E01373026008C00F03071
:101770008D00FF308E003C00A40114303D0091002C
:1017800008002000CE004E08023E8600013087008F
:1017900002300106031D08004E080A3E8600013093
:1017A00087000130810741310318810A4E080A3E43
:1017B00086000130870016000104031D08004E0852
:1017C0000A3E860001308700FF30C03FFF30C13F36
:1017D00008002000D4004D08D2004C08D100540865
:1017E000D0005008D5000130CE020030CF3B4E0A69
:1017F00003194F0A03190800510884005208850094
:101800000008D0005008D3000130D1070030D23D8D
:101810005308D00055088600013087005008810029
:101820000130D0005008D507F32B2000D800580A0B
:101830008600013087000108893161218C31200048
:101840005008D4005108D500D601D7015808053EEC
:101850008600013087005408C03F5508C13F560834
:10186000C23F5708C33F5808053E86000130870035
:10187000043081354131810D4131810D4131810D7E
:101880007D31890B392C080000302000D700003052
:10189000D6000030D5000030D4004C1C572C500826
:1018A000D4075108D53D5208D63D5308D73D0130E5
:1018B000D035D10DD20DD30D890B582C0130CF3638
:1018C000CE0CCD0CCC0C890B5F2C4F084E044D0474
:1018D0004C04031D4D2C5708CF005608CE00550868
:1018E000CD005408CC00080020003B08A03E860034
:1018F0008701810123001D1D892C20003B08A03E8B
:10190000860087018114210045088A0044080A00E6
:101910008C3123009D1C982C20003B08A03E8600A3
:1019200087010115210043088A0042080A008C3112
:1019300020003B08A03E8600870101080319A72C60
:10194000210041088A0040080A008C3108008831D3
:10195000D32008002000CE004E08CC000330CC3548
:10196000FF3E031DAF2C4C35203ECD004D08CF006F
:101970004F08023E86000130870081014F08053E76
:101980008600013087000030C03F0030C13FC23FB9
:10199000C33F4F080A3E8600013087000030C03F39
:1019A000C13F4F080C3E8600013087000030C03F29
:1019B000C13F4F0A86000130870001089631D526C5
:1019C00008002100911274302000CC000C30CD00B2
:1019D000973163278C312100111203302000CC0095
:1019E0000A30CD0097316C278C31083023009F00DE
:1019F00090309D0024309E00A0309B0001309C0060
:101A0000D0302000CC001630CD00973151278C31DA
:101A1000E6302000CC001630CD0097315A278C31AB
:101A2000DA302000CC001630CD0097314827200056
:101A3000BA01BE01BD010830CE004E08BC00BB019A
:101A4000FB01FA012100911608002000D60056087B
:101A5000023E86000130870001080319632D5608F5
:101A6000033E860001308700403FD400413FD5004F
:101A7000D536D40CD536D40C5608033E860001303A
:101A800087005408810241315508813B7F31560A55
:101A9000860001308700010889316121200050084B
:101AA000D4005108D500D536D40CD536D40C560800
:101AB000033E8600013087005408810741315508F4
:101AC000813D7F310800560A8600013087000108F9
:101AD0008931612120005608033E860001308700CD
:101AE0005008C03F5108C13F08002000E100053008
:101AF000DE005E08E00061089731B2278D31003AC0
:101B0000031D8C2D0030080001302000E002600829
:101B1000031D8C2DFC300800200061088F319127B7
:101B20008D31003A031D842D20006108063E860099
:101B300001308700403F3802CC00413F393BCD00A7
:101B4000893148218D3120006108053E8600013031
:101B500087000108DE00DF01DE35DF0DDE35DF0D39
:101B60004D085F02031DB62D4C085E020318C12DFF
:101B7000610897311B278D3120006108873192273A
:101B800008006108973124278D31822D2000E40060
:101B90000930E2006208CC00640888311F208D31D2
:101BA000503E2000E3006308E60066088D3175258D
:101BB0008D312000E2006208E500F82D66089731BB
:101BC000B2278D31003A0319152E2000660889319D
:101BD0007B218D312000660897312D278D31200023
:101BE0006408E2006208CC009631D6268D31152EAD
:101BF0006508E200E301E21BE3036308003A03190E
:101C0000052EFF3A03190A2E152E6208003A031911
:101C1000DE2D152E6208FD3A0319152E033A03191D
:101C2000152E013A0319152E152E200065080800FF
:101C30002000E0006008DE000330DE35FF3E031DBB
:101C40001D2E5E35203EDF005F08E100610A860040
:101C50000130870001088831A7208E31003A03192E
:101C600008002000610A86000130870001089631D3
:101C7000D8268E31003A0319080020006108883107
:101C800000208E3120006108863193268E3120009D
:101C90006108023E86000130870003300102031C08
:101CA000592E610886000130870001088C31AA2472
:101CB0008E3120006108DE005E08D9006108023E16
:101CC0008600013087000135D63E86008701413FFE
:101CD0008A00403F0A008E310800200059080A3E61
:101CE000860001308700403FDA00413FDB000330CF
:101CF0005B02E83003195A02031C922E5908860031
:101D00000130870001088C31AA248E312000590847
:101D10008600013087000108DA005A08CC009631AD
:101D2000D42608005908093E8600013087000108C2
:101D3000803ADA0059080E3E8600013087005908C3
:101D40000E3E84000130850000360102803ADA023E
:101D5000031808005908023E8600013087008101FF
:101D6000810A59080A3E8600013087000030C03FD2
:101D7000C13F59080C3E860001308700FF30C03F4C
:101D8000FB30C13F59088600013087000108DA00A6
:101D90005A08CC009631D4260800200059080A3E83
:101DA000860001308700403FDA00413FDB00003011
:101DB0005B02093003195A020318E32E59088C31CB
:101DC00015248E31E72E5908853178258E31200073
:101DD00059080A3E860001308700013081074131F1
:101DE0000318810A59080A3E860001308700403FE7
:101DF000DA00413FDB0000305B02103003195A0269
:101E0000031C08005908053E860001308700403F4A
:101E1000DA00413FDB00423FDC00433FDD0004309D
:101E2000DD36DC0CDB0CDA0C890B102F5908033E75
:101E30008600013087005A08C03F5B08C13F59083F
:101E4000023E8600013087008101810A59080A3E5E
:101E50008600013087000030C03FC13F08002000ED
:101E6000D200742F0030CC00F030CD004408D000F8
:101E70005008CE008B31562308000130CC00F030E2
:101E8000CD004308D0005008CE008B315623080007
:101E90000230CC00F030CD004208D0005008CE0017
:101EA0008B31562308000330CC00F030CD004108C0
:101EB000D0005008CE008B31562308000430CC00EF
:101EC000F030CD004008D0005008CE008B315623B2
:101ED00008000530CC00F030CD003F08D00050089D
:101EE000CE008B31562308005208D000D101510892
:101EF000003A03197C2F902F5008003A0319322F13
:101F0000013A03193D2F033A0319482F013A0319E7
:101F1000532F073A03195E2F013A0319692F902FA7
:101F200008002000D3000B0E890C890C0139CE006B
:101F30000B0D0B0D01394E05031DA02FFE300800BF
:101F4000D20121001D082000CE004E08CF00210044
:101F50001E082000CE004E08D00021001F082000DF
:101F6000CE004E08D100973112278F312000530840
:101F7000893101218F31200053088600013087000C
:101F80000108CE004E08FD0053088600013087008E
:101F90000130453FFC00B801B9014A10B601B70154
:101FA0000830CC000630CD009631F4268F31200069
:101FB0006F089631EE268F319631DD268F31200065
:101FC000CA10111F4A18E52FE12F11134A1CE12FE7
:101FD0009631E0268F3120004F0821009D0020001F
:101FE000500821009E002000510821009F00200081
:101FF000CA1CFE2FFA30CE004E08D200520808004C
:102000000034003400340034003400340034003430
:1020100000340034003400340034003464340134BB
:10202000013401340034003400340034003400340E
:10203000003400340034003400340034643401349B
:1020400002340234003400340034003400340034EC
:10205000003400340034003400340034643401347B
:102DA0000800080008000800080008000800C834EF
:102DB000013008008831D320080028001E150800C3
:102DC00028001E11080089311821080023001D1257
:102DD0001D16080016302100970008002000CC00C6
:102DE0004C0828009D00080020004D08AF004C084A
:102DF000AE00080020004D08B3004C08B2000800E7
:102E000020004D08B1004C08B000080064008001AB
:102E10000131890B072F0034FE0012001E00FE0B4B
:102E20000D2F0034FC3028009E0521009D01D0307C
:102E30009E009F0108002000CC004C08083E860040
:102E400001308700011508002000CC004C08083E26
:102E5000860001308700011108002000CC004C08DA
:102E6000083E860001308700811408002000CC0055
:102E70004C08083E860001308700811008000130B0
:102E800021009D00D0309E009F019B019C01080005
:102E900020004D082100C10020004C082100C00086
:102EA000080020004D082100C50020004C0821002A
:102EB000C400080020004D082100C30020004C0879
:102EC0002100C200080020004D082100D30020008E
:102ED0004C082100D200080020004D082100D50038
:102EE00020004C082100D4000800320099019B0109
:102EF0009D0104309F009E011C1808007C2F2000BB
:102F00009012320833040319080033088A0032088B
:102F10000A0097310800200092132E082F0403198D
:102F200008002F088A002E080A0097310800973100
:102F3000E02797318A3120229731883192209731CA
:102F400097311227080020001B1DAD2F1B107108A0
:102F50009A00700899001B14080071089A00700804
:102F6000990008002000CC004C080319BF2F4C0822
:102F7000083E860001308700010801390800003052
:102F8000080020004D083100920020004C0831005C
:102F900091001517151400000000310013080800F7
:102FA0002000E30163088E3118269731013020009C
:102FB000E2006208E3070330630203180800D22F1F
:102FC0002000D50155088831442097310130200078
:102FD000D4005408D5070330550203180800E22F27
:102FE000CD340E34403404346D340E34D4341634BD
:102FF000D4341634D7340A347A340A34D6341634F6
:0A30000003340D340E3414340D3483
:020000040001F9
:08000E008CFFF3FFFFFFFFFF71
:00000001FF
