:020000040000FA
:1000000080311E28003008007E1480314E01961A7F
:100010008C1E0E288931C42180311C280B1F1C28FE
:100020009A18901C17288931D12180311C281A1860
:10003000101C1C288A3180227E1009008031202863
:1000400037308400893085006B30860000308700AF
:100050000530893160218031E63084008A308500A6
:10006000A030860000308700153089316021803152
:10007000F801F901FA01FB01FC01FD0120308400C7
:10008000003085002A3089315A218031B530840012
:1000900000308500143089315A217E1040018031B2
:1000A00051288B31582380318B170B179D3040011D
:1000B000CA000F30CB0089314E218031A030400181
:1000C000CA000930CB008931542180314001C4017C
:1000D0000A30E6006608C3000A30E6006608C2007F
:1000E0000A30E6006608C1000A30E6006608C00073
:1000F0000A30E6006608BF000A30E6006608BE0067
:100100003C30E6006608BD000530E6006608BC002D
:10011000AE01AF010030AB000030AA000030A900F2
:100120000030A80000304101B8000030B7000030B6
:10013000B6000030B5004001C801C901AC01AD01F5
:100140000030A7000030A6000030A5000030A40059
:100150000030A3000030A2000030A1000030A00059
:1001600004308C312D24803140014A08A4074B080B
:10017000A53D0030A63DA73D02308C312D248031B5
:1001800040014A08A0074B08A13D0030A23DA33D15
:100190000130AE070030AF3D2F032E04031D9E2B10
:1001A0002408E6002508E7002608E8002708E900FB
:1001B0000830EA00E937E80CE70CE60CEA0BDA282D
:1001C0006908A7006808A6006708A5006608A400DB
:1001D000A71BF7282708031DFF282608031DFF2853
:1001E0002508031DFF28CC3024020318FF280B30FC
:1001F000E6006608C300C201C20A0E306F2AA71BC0
:1002000015292708031D0D292608031D0D29E23095
:1002100024020330253B031C15290B30E600660839
:10022000C300C201C20A0D306F2A2508CB00240882
:10023000CA008331C223803140012708CD0026083F
:10024000CC002508CB002408CA002B08D1002A08BE
:10025000D0002908CF002808CE008D31112580312B
:1002600040014D08A7004C08A6004B08A5004A080D
:10027000A4002408410135024001E600250841019F
:10028000363B4001E70026084101373B4001E800CA
:1002900027084101383B4001E9000A30E936E80C03
:1002A000E70CE60C890B4E296908A7006808A60030
:1002B0006708A5006608A4002508C9002408C8002E
:1002C000C91B7F290A30D3000030D4004908D6006A
:1002D0004808D5008D31B625803140015408803A58
:1002E000E60080306602031D772905305302031CA7
:1002F0007F2940014808053EC8000030A52940017B
:10030000C91FA7290A30D3000030D4004809E600ED
:100310004909E700E60A0319E70A6608D5006708F5
:10032000D6008D31B625803140015408803AE8006E
:1003300080306802031D9E2905305302031CA72943
:1003400040014808FB3EC800FF30493DC90040015C
:100350004908803AE6007F306602031DB129F73074
:1003600048020318002A40014908803AE6007E301E
:100370006602031DBD29703048020318C42970307D
:100380004001C800FE30C90040014908803AE6003B
:100390007F306602031DCE299D304802031CED29E3
:1003A00040014908803AE6007F306602031DDA29E1
:1003B000F73048020318ED290B304001E6006608CB
:1003C000C3000F30E6006608C2000A30D3000030D8
:1003D000D400F630CA00FF305D2A0F304001E6003D
:1003E0006608C3009C30CA00FF30CB004908CD002E
:1003F0004808CC008E314526803140014A08E22968
:1004000040014908803AE6007F306602031D0A2A4F
:10041000F7304802031C1B2A40014908803AE600D5
:1004200080306602031D162A0130480203181B2A79
:100430004001C801C90140014908803AE600823004
:100440006602031D252A59304802031C2C2A583005
:100450004001C8000230C9004001C91B412A4908B7
:10046000803AE60080306602031D382A6430480274
:100470000318412A0B304001E6006608C3000B3028
:10048000532A0B304001E6006608C3006430CA00FE
:100490000030CB004908CD004808CC008E314526FD
:1004A000803140014A08E6006608C2000A30D300E5
:1004B0000030D4000A30CA000030CB004908CD001B
:1004C0004808CC008E314526803140014B08D600CB
:1004D0004A08D5008D31B625803140015308E60029
:1004E0006608C1002008E6002108E7002208E800AD
:1004F0002308E9000830EA00E937E80CE70CE60CCD
:10050000EA0B7C2A6908A3006808A2006708A1001A
:100510006608A000A31B992A2308031D9F2A22080E
:10052000031D9F2A2108031D9F2ACC302002031897
:100530009F2A0230E6006608C0000E30892BA31BFC
:10054000B32A2308031DAD2A2208031DAD2AE23079
:1005500020020330213B031CB32A0230E600660868
:10056000C0000D30892B2108CB002008CA00833140
:10057000C223803140012308CD002208CC0021088D
:10058000CB002008CA002B08D1002A08D000290877
:10059000CF002808CE008D311125803140014D0853
:1005A000A3004C08A2004B08A1004A08A0002008A4
:1005B000410135024001E60021084101363B40017E
:1005C000E70022084101373B4001E80023084101D0
:1005D000383B4001E9000A30E936E80CE70CE60C4C
:1005E000890BEC2A6908A3006808A2006708A1002B
:1005F0006608A0002108AD002008AC00E230AC077E
:10060000FF30AD3DAD1B222B0A30D3000030D400AB
:100610002D08D6002C08D5008D31B625803140013B
:100620005408803AE60080306602031D192B05301D
:100630005302031C222B40012C08053EAC00003065
:100640002D3DAD0040012D08803AE6008030660265
:10065000031D2C2B0B302C020318332B0A304001C6
:10066000AC000030AD0040012D08803AE600823039
:100670006602031D3D2B59302C02031C442B5830BD
:100680004001AC000230AD0040012D08803AE60088
:1006900080306602031D4E2B0A302C02031C5F2B98
:1006A00040012D08803AE60080306602031D5A2B77
:1006B00064302C0203185F2B0B3040016D2B64302B
:1006C0004001CA000030CB002D08CD002C08CC0022
:1006D0008E314526803140014A08E6006608C00098
:1006E0000A30D3000030D4000A30CA000030CB00FA
:1006F0002D08CD002C08CC008E31452680314001DC
:100700004B08D6004A08D5008D31B625803140010E
:100710005308E6006608BF00AE01AF010030A70035
:100720000030A6000030A5000030A4000030A30077
:100730000030A2000030A1000030A0008B31D72390
:100740008031003A0319B02800308B31A223803168
:10075000003A0319B02840013C08031DB0280530B9
:10076000E6006608BC003D08031DBF2B3C30E600D8
:100770006608BD000A30E6006608BE00B028BD016C
:10078000BE01B02840014A084B0403190800033099
:100790004B02C83003194A02031CE02B0030AB00A7
:1007A0000030AA000F30A900E030A800003041015D
:1007B000B8003730B7007630B6000030B50008001A
:1007C00003304B02A13003194A02031CF92B0030FD
:1007D000AB000030AA000930A900C730A8000030E3
:1007E0004101B8002030B7005F30B6003330B500AB
:1007F000080003304B02643003194A02031C122C18
:100800000030AB000030AA000630A9008830A800F4
:1008100000304101B8001430B7009B30B6003330CF
:10082000B500080003304B02113003194A02031CC3
:100830002B2C0030AB000030AA000430A900CB30D4
:10084000A80000304101B8000E30B700B330B60048
:100850008530B500080002304B02AA3003194A0265
:10086000031C442C0030AB000030AA000330A90068
:10087000E630A80000304101B8000B30B700F4307A
:10088000B600B830B500080002304B023930031909
:100890004A02031C5D2C0030AB000030AA0003307C
:1008A000A9008930A80000304101B8000A30B70023
:1008B000FB30B6002930B500080001304B02C930CA
:1008C00003194A02031C762C0030AB000030AA004A
:1008D0000330A9009030A80000304101B8000B306F
:1008E000B7000830B600C330B500080001304B0235
:1008F000643003194A02031C8F2C0030AB00003017
:10090000AA000330A900F230A80000304101B8006D
:100910000B30B700B430B6004830B50008000130E5
:100920004B020F3003194A02031CA82C0030AB0005
:100930000030AA000430A900B530A8000030410101
:10094000B8000C30B700C130B6007B30B5000800ED
:1009500000304B02CC3003194A02031C080000305F
:10096000AB000030AA000530A900F130A80000302B
:100970004101B8000E30B7000D30B6000A30B500A6
:10098000080040015708093E860087010108803AA7
:10099000D80057080E3E860087010103FF3A803ACF
:1009A000D8020318FA2C57080A3E86008701013046
:1009B000810741310318810A57080A3E86008701E2
:1009C000403FD800413FD90000305902413003195F
:1009D0005802031C332D57080A3E86008701003059
:1009E000C03FC13F57088600870101088D3141256E
:1009F0008431332D5708093E860087010108D8004D
:100A0000D901D81BD90357080E3E86008701590823
:100A1000803A803C031D0E2D5808010203182B2D2F
:100A200002304001D8005708023E8600870158086E
:100A3000810057080A3E860087010030C03FC13F51
:100A40005708860087010108D8005808CA00893174
:100A50001F218431332D400157080A3E860087014B
:100A60000030C03FC13F400157080C3E860087015F
:100A70000130810741310318810A57080C3E860076
:100A800087011600403AD8001600D804031D08005C
:100A900057080C3E860087010030C03FC13F570811
:100AA0008531532508004001D0008B1F9A2D8B13F0
:100AB0005008053E86008701403FCA00413FCB00F9
:100AC000423FCC00433FCD000430CD36CC0CCB0CA4
:100AD000CA0C890B652D5008053E860087014A081F
:100AE000810241314B08813B41314C08813B41310E
:100AF0004D08813B7D315008033E86008701403F11
:100B0000CA00413FCB004A08CC004B08CD00CE01C3
:100B1000CF015008053E860087014C08810741310E
:100B20004D08813D41314E08813D41314F08813DA5
:100B30008B1708005008053E86008701403FCA0019
:100B4000413FCB00423FCC00433FCD000430CD3687
:100B5000CC0CCB0CCA0C890BA72D5008053E860087
:100B600087014A08810241314B08813B41314C08E1
:100B7000813B41314D08813B7D315008033E860069
:100B80008701403FCA00413FCB004A08CC004B08D8
:100B9000CD00CE01CF015008053E860087014C08EC
:100BA000810741314D08813D41314E08813D413140
:100BB0004F08813D080041019D18DB2D1C08F700FE
:100BC0001B08F6004001471808007C08031DF52D9E
:100BD0004D2E6E088A006D080A008531062E6C08BD
:100BE0008A006B080A008531062E7C080139F40062
:100BF000F5017508003A0319FE2D062E7408003A17
:100C00000319E92D013A0319EF2D062E0930F400DE
:100C10007408F0007D088A3127228531B13E8600B4
:100C2000870101087C0603194A2E7C1C352E0030F2
:100C3000F4000430F50076087402F6007708753B7E
:100C4000F700760840013602F0007708373BF100E4
:100C50008B311123853170084001B8077108B93D07
:100C60007708B7007608B600462E76087A02F000BC
:100C700077087B3BF1008B31112370084001B807E6
:100C80007108B93D7708FB007608FA007608BA07C4
:100C90007708BB3D0130FC0208007608BA077708E8
:100CA000BB3D76087A02F00077087B3BF1008B3180
:100CB000112370084001B8077108B93D47140800B6
:100CC0004001D4005408053E86008701403FCA0019
:100CD000413FCB00423FCC00433FCD000430CD36F6
:100CE000CC0CCB0CCA0C890B6F2E5408033E86002B
:100CF0008701403FCE00413FCF004E08D0004F0853
:100D0000D100D201D3014A08D0024B08D13B4C0894
:100D1000D23B4D08D33B5308D8005208D7005108A6
:100D2000D6005008D5005508CA005608CB00570811
:100D3000CC005808CD0054080F3E86008701010AF8
:100D4000A52ECD37CC0CCB0CCA0C890BA12E4D088F
:100D5000D8004C08D7004B08D6004A08D500D81B4D
:100D6000C62E5808031DBE2E5708031DBE2E56085A
:100D7000031DBE2E80305502031CC62E0030D80045
:100D80000030D7000030D6007F30D500D81FDA2ED3
:100D900080305502FF30563BFF30573BFF30583B09
:100DA0000318DA2EFF30D800FF30D700FF30D6000E
:100DB0008030D5005508CA005408093E86008701D6
:100DC0004A08810008004001D7003908D2003808DD
:100DD000D100D236D10CD236D10C38085107D3000D
:100DE0003908523DD4006F08D1005108D8003B08A3
:100DF000D6003A08D500DA015A081F3E8400883030
:100E00000318013E85000008D1005108EF07C830E3
:100E10006F0203180F2FC830D1005108EF070530BB
:100E2000D1005108D9005708873149278631003A47
:100E30000319222F01304001D9025908031D132F35
:100E4000FC300800400139085402031D292F3808DE
:100E500053020318372F3908D4003808D3006F081D
:100E6000D1005108D8003B08D6003A08D50001301F
:100E7000D1005108DA0705305A02031CFC2E58082D
:100E8000D1005108EF005608BB005508BA000030E9
:100E900008004001D0000B0E890C890C0139CC00F0
:100EA0000B0D0B0D01394C05031D582FFE300800AA
:100EB000CF0141011D084001CC004C08CD0041018B
:100EC0001E084001CC004C08CE00893196218731A4
:100ED000400150088A315B2287314001500886006A
:100EE00087010108CC004C08FD00500886008701EE
:100EF000453FFC00BA01BB014710B801B901DB3026
:100F0000CA000530CB0089314821873140016F0884
:100F10008931422187318931272187314001C7102A
:100F20004E010D18962F4001471C902F4E010D10B9
:100F30004001471C902F89312D21873140014D08F8
:100F400041019D0040014E0841019E004001C71C27
:100F5000AD2FFA30CC004C08CF004F0808004001FC
:100F6000DE005E08DC000330DC35FF3E031DB42FDD
:100F70005C35B93EDD005D08DF005F0A8600870151
:100F800001088A3194228731003A03190800400190
:100F90005F0A860087010108893122218731003AE2
:100FA0000319080040015F088931DE2187314001C3
:100FB0005F0886316026873140015F08023E860067
:100FC000870103300102031CEC2F5F0886008701B4
:100FD00001088D314125873140015F08DC005C0844
:100FE000D7005F08023E860087010135A03E8600DB
:100FF0008701413F8A00403F0A0087310800C03422
:10100000F934A434B034993492348234F8348034CE
:1010100090340034FF348634C7348934BF3400340C
:101020000034003400340034003400340034003420
:1010300000340034003400340034503401340334BC
:081040000D340E3414340D349C
:10123800080008000800080008000800013008003D
:1012480045018E17080089312421080045018E13B5
:10125800080089312A210800893133210800B93072
:101268008C314C24080095340C3470340C34C83458
:101278004001CA004A0845018D0008004001CB0022
:101288004B0889313C21080040014B08B3004A084B
:10129800B200080040014B08B5004A08B400080035
:1012A80040014B08B1004A08B00008006400800102
:1012B8000131890B5B290034FE0012001E00FE0B71
:1012C800612900344001CA004A08083E86008701A7
:1012D800011508004001CA004A08083E8600870137
:1012E800011108004001CA004A08083E860087012B
:1012F800811408004001CA004A08083E8600870198
:1013080081100800013041019D00D0309E009B01F2
:101318009C0108004F0196019701980199019A01D3
:101328009B0108008F3045018E0501309000410176
:101338009D01D0309E00080040013E080319A629EF
:101348000130BE023D08031908000130BD02080043
:101358008A31182289318B31F32389318A31D1229C
:101368008931893196210800103051018D008F0193
:101378009101033093009001920110180800C129CF
:101388004E018C1240013408350403190800350851
:101398008A0034080A00893108004E019010400183
:1013A800320833040319080033088A0032080A0097
:1013B800893108004001D5008B1FE8298B13550897
:1013C8008D31FC258B17080055088D31FC25080048
:1013D8004001CA004A080319F8294A08083E86004D
:1013E80087010108013908000030080044010E1D7A
:1013F800042A0E1071088D0070088C000E14080065
:1014080071088D0070088C0008004001E101610836
:101418008731AF278A3101304001E0006008E107D9
:101428006108031D08000B2A4001D30153088A31C3
:101438006D228A3101304001D2005208D307530887
:10144800031D08001A2AF200F301721C2F2A7008E3
:10145800F1007108F3070310F00D0310F20C720885
:10146800031D292A730808004001CF004F08031DF7
:1014780008000930CE004E08CA004F088A314922B8
:10148800B43E86008701011408004001CD00CC015C
:101498004D1C522A4A08CB004B08CC070310CA0D32
:1014A8000310CD0C4D08031D4C2A4C0808004001C0
:1014B800CA004A0A86008701403FED00413FEE001E
:1014C8004A08033E86008701403FEB00413FEC009D
:1014D80008004001D10051088A3138228A31093088
:1014E8004001D0005008CA0051088A3149228A3187
:1014F800AC3E89317E2108004E0110107908F100B8
:101508007808F0008931FA218A3140013008310425
:101518000319080031088A0030080A008A310800D7
:101528004001CF004F08031DA62A0930CE004E08FF
:10153800CA004F088A314922B43E86008701010C4F
:10154800013908000030080080304B019F001E3030
:101558009D009C014E018C1296161C304001CA0059
:101568000930CB0089314E2180304B019E000800A4
:101578004001E40164088E3197268A31003A031944
:10158800C72A0030080001304001E3006308E4077F
:1015980064080319BE2A01300800AC304001CB00B2
:1015A8004B08CC00AC30CB004C084B02031C0800A5
:1015B8004C0889317E218A3109304001CB004B0823
:1015C800CC07D62A42340F34C1340434EC340E34F8
:1015D8001F3409341F340934213409340034703479
:1015E8000C3495340C342034003400340034033087
:1015F800450190008F019101FF308D008C014E0153
:1016080090109A141E304001CA000930CB0089316D
:101618004821803045018E0008007108803AF200A8
:1016280080307202031D1A2B013070020318080063
:101638007009F2007109F300F20A0319F30A72083B
:10164800F0007308F10008004001D1005108031DA3
:101658003D2B0930D0005008CA0051088A31492270
:10166800B23E86008701403F4001CE00413FCF0097
:101678000800CE01CF0108004001CA008B1F4F2B84
:101688008B134A08063E860087013A08C03F3B088C
:10169800C13F8B1708004A08063E860087013A08B2
:1016A800C03F3B08C13F080089318E218B318C3106
:1016B8000F248B318931B8218B31893186218B31C7
:1016C8008A31FB228B318B31BC238B318A31A822A2
:1016D8008B318931AC210800F1007108031D872B7B
:1016E8007108F0000330F035FF3E031D772B70358D
:1016F800BB3E8600870102300106031D852B0130A1
:101708000800003008000030080040014B08803A0B
:10171800CC0080304C02031D932B01304A02031881
:10172800080040014A09CC004B09CD00CC0A031936
:10173800CD0A4C08CA004D08CB0008004001CB0078
:101748004B08031DBA2B4B08CA000330CA35FF3EAD
:10175800031DAA2B4A35BB3E8600870102300106CD
:10176800031DB82B013008000030080000300800C5
:1017780044018F0190010430910086308D00E830DB
:101788008C000D08F9000C08F8004E0110101A140E
:101798001D304001CA000930CB0089315421013085
:1017A80044018E0008004001C501C50A8A31BC22E7
:1017B8008B31003A031DE22B003008008A310922E0
:1017C8008B31803102208B314001E5006508C5006E
:1017D8008A31D1228B3189313021013008000F3014
:1017E8004001CA008830CB001030CC000030CD005A
:1017F800B9308C31BA248B314001D50155088D316F
:1018080041258B3101304001D4005408D5075508D3
:10181800031D0800022C4001980199019A011C300F
:101828009200930194017E01CE01C3011430B800E7
:10183800C401B901CF01BA01C501D0013F30BB00D5
:10184800C6013F30D1003F30BC00C7013F30D20055
:1018580008004001CD004D08CC00CC0DCC0D410155
:101868001D0840014C0603394C0641019D001D141A
:101878000630890B3D2C003241019D149D18422CE5
:101888001C084001CB0041011B084001CA000800A8
:101898004001CC004C08023E860087010230010658
:1018A800031D08004C080A3E8600870101308107A5
:1018B80041310318810A4C080A3E86008701160048
:1018C8000104031D08004C080A3E86008701FF300A
:1018D800C03FFF30C13F0800400198164101153054
:1018E8009D000530890B762C000071309D00400169
:1018F80098124101123084000030850018308600AB
:1019080000308700153080169D000032003200320A
:10191800003241019D1400320000400198168012E7
:10192800080040019812410115309D000530890BCF
:101938009B2C000071309D00400198164101123027
:10194800840000308500183086000030870015308C
:1019580080169D00003200320032003241019D1491
:101968000032000040019812801208004001D200A5
:101978004B08D0004A08CF005208CE004E08D300CA
:101988000130CC020030CD3B4C0A03194D0A031933
:1019980008004F088400500885000008CE004E0853
:1019A800D1000130CF070030D03D5108CE00530898
:1019B800860087014E0881000130CE004E08D3070B
:1019C800C42C4001D600560A8600870101088B31D5
:1019D80028238C3140014E08D2004F08D300D4018F
:1019E800D5015608053E860087015208C03F5308B6
:1019F800C13F5408C23F5508C33F5608053E8600FC
:101A08008701043081354131810D4131810D4131EA
:101A1800810D7D31890B062D080000304001D5006D
:101A28000030D4000030D3000030D2004A1C242DEE
:101A38004E08D2074F08D33D5008D43D5108D53D34
:101A48000130CE35CF0DD00DD10D890B252D0130AC
:101A5800CD36CC0CCB0CCA0C890B2C2D4D084C0464
:101A68004B044A04031D1A2D5508CD005408CC0018
:101A78005308CB005208CA0008004001CC004C08AB
:101A8800CA000330CA35FF3E031D462D4A35B93E0C
:101A9800CB004B08CD004D08023E8600870181012E
:101AA8004D08053E860087010030C03F0030C13F29
:101AB800C23FC33F4D080A3E860087010030C03F41
:101AC800C13F4D080C3E860087010030C03FC13F32
:101AD8004D0A86008701010889312021080040014C
:101AE800DD000530DB005B08DC005D088931EC2196
:101AF8008D31003A031D8A2D003008000130400165
:101B0800DC025C08031D8A2DFC30080040015D08DA
:101B1800873149278D31003A031D822D40015D0828
:101B2800063E86008701403F3A02CA00413F3B3BE0
:101B3800CB008B3189238D31003040014B02653059
:101B480003194A02031CB12D5D08893166218D31C4
:101B580040015D088631E32608005D0889316E2161
:101B68008D31802D4001D901D61FC12DD509D60947
:101B7800D50A0319D60AD901D90AD41FC82DD30901
:101B8800D409D30A0319D40A530854040319EF2DAE
:101B9800D801D80AD41BDA2D0130D335D40D890BDE
:101BA800D12D0130D7005708D807CE2D540856023A
:101BB800031DE02D53085502031CE62D5308D502DA
:101BC8005408D63B0130D436D30C890BE72D0130AD
:101BD800D802031DDA2D59080319F72DD509D6099E
:101BE800D50A0319D60A5608D4005508D3000800A8
:101BF8004001D4005408023E8600870101080319F9
:101C0800352E5408033E86008701403FD200413FED
:101C1800D300D336D20CD336D20C5408033E8600F8
:101C280087015208810241315308813B7F31540AB0
:101C38008600870101088B31282340014E08D20015
:101C48004F08D300D336D20CD336D20C5408033EF7
:101C5800860087015208810741315308813D7F3151
:101C68000800540A8600870101088B3128234001A7
:101C78005408033E860087014E08C03F4F08C13F05
:101C880008004001D001CB1F502ECA09CB09CA0A4F
:101C98000319CB0AD001D00ACD1F5B2ECC09CD0980
:101CA800CC0A0319CD0A0130CE004E08D006D10166
:101CB800D2014A084B0403198A2ECF01CF0ACB1B45
:101CC8006F2E0130CA35CB0D890B662E0130CE0040
:101CD8004E08CF07632E0130D135D20D890B702EF7
:101CE8004B084D02031D7A2E4A084C02031C812E14
:101CF8004A08CC024B08CD3B51140130CB36CA0CF4
:101D0800890B822E0130CF02031D6F2E5008031954
:101D1800922ED109D209D10A0319D20A5208CB004E
:101D28005108CA0008004001E0000930DE005E08E2
:101D3800CA0060088A3149228E31AC3E4001DF007A
:101D48005F08E20062088D3173258E314001DE00A4
:101D58005E08E100CC2E62088931EC218E31003A10
:101D68000319E92E40014608031DBE2E62088B3177
:101D780040238E3140016208893176218E3140013D
:101D88006008DE005E08CA00893121218E31E92E03
:101D98006108DE00DF01DE1BDF035F08003A03197C
:101DA800D92EFF3A0319DE2EE92E5E08003A0319F0
:101DB800AF2EE92E5E08FD3A0319E92E033A0319FE
:101DC800E92E013A0319E92EE92E400161080800BD
:101DD800400157080A3E86008701403FD800413F2E
:101DE800D90003305902E83003195802031C0E2F9A
:101DF80057088600870101088D3141258E31400141
:101E08005708860087010108D8005808CA00893198
:101E18001F2108005708093E860087010108803AFB
:101E2800D80057080E3E8600870157080E3E8400EA
:101E3800850100360102803AD802031808005708C5
:101E4800023E860087018101810A57080A3E860002
:101E580087010030C03FC13F57080C3E860087010C
:101E6800FF30C03FFB30C13F57088600870101089B
:101E7800D8005808CA0089311F21080040015708B6
:101E88000A3E86008701403FD800413FD900003014
:101E980059020930031958020318572F57088C3173
:101EA800E5248F315B2F5708853153258F31400149
:101EB80057080A3E8600870101308107413103181F
:101EC800810A57080A3E86008701403FD800413FF3
:101ED800D90000305902103003195802031C0800B9
:101EE8005708053E86008701403FD800413FD9008A
:101EF800423FDA00433FDB000430DB36DA0CD90C12
:101F0800D80C890B812F5708033E86008701580893
:101F1800C03F5908C13F5708023E8600870181012A
:101F2800810A57080A3E860087010030C03FC13F3A
:101F3800080040013C080319AB2F00308B31702397
:101F48008F31003A031DAB2F01304001BC02400124
:101F58003D080319F82FFF309A00991319139912A5
:101F6800191298101810D02F181499174308C72F52
:101F780019174208C72F99164108C72F1916400884
:101F8800C72F98143F08FF3E840087300318013E8E
:101F9800850000089A00E92F4408F200F30173084D
:101FA800003A0319D82FE92F7208003A0319B82FFD
:101FB800033A0319BC2F053A0319BF2F0F3A031927
:101FC800C22F053A0319C52FE92F3E080319EE2F32
:101FD8000330EF2F0130F2007208C4070F304402BB
:101FE800031C0800C40108009A01991319139912D7
:081FF8001912981018100800DE
:020000040001F9
:0A000E009C3FBF3F9F3FFF3FFE3FB6
:00000001FF
