:040000008A15862AAD
:0E000600F201F101F001F801F30100300800F1
:100014007B15FB1F14280130F300F201F101F001FC
:08002400FA0DF20CFF30080098
:08002C00FA1FF2130030080076
:10003400FB14FB1F2428FF30F300F200F100F00052
:08004400FA0DF20CFF30080078
:10004C00243083120313FC00B530FD00FD0B2C286B
:0A005C00FC0B2C2800000000080037
:0C00660000000000000000000000080086
:0E007200533083120313FD00FD0B3D280800E0
:10008000A0017208031D55287108F2007008F100E4
:10009000F001A0157208031D55287108F200F10146
:1000A000A01120167208031963282008F302031D0B
:1000B000031C67280310F21B6B28F00DF10DF20DE5
:1000C000F30B5B2867280130FC0003206E28023008
:0E00D000FC000A206E280430FC0016200800F8
:1000DE007C18A528FC1876287C19C4286F28A00146
:1000EE007208031D96287108F2007008F100780856
:1000FE00F000F801A0157208031D96287108F20091
:10010E007008F100F001A01120167208031D962848
:10011E007108F200F101A01572080319B828200821
:10012E00F302031D031CBC280310F21BA528F80DB7
:10013E00F00DF10DF20DF30B9C28BC287B1B701CEF
:10014E00C028F81FC028F00A0319F10A0319F20A91
:10015E00031DC028F20CF10CF00CF30A0319C4288D
:10016E00C0280130FC000320C7280230FC000A2002
:10017E00C7280430FC001620C7280830FC001A20BF
:04018E000000080065
:1001920083120313EF1BCF288613D02886176F1BF9
:1001A200D4280613D5280617EF1AD9288612DA287A
:1001B20086166F1ADE280612DF2806164618E3286E
:1001C2000615E4280611861533208611EF19EB284F
:1001D2008613EC2886176F19F0280613F1280617E4
:1001E200EF18F5288612F62886166F18FA280612D6
:1001F200FB2806164618FF28061500290611861543
:1002020033208611461C0729262008293920080098
:10021200243083120313FD00FD0B0D29000008009A
:06022200FB15FF3008008F
:100228008312031372087606A000F801F901730817
:100238007702031C37297708FD007308F7007D084B
:10024800F3007608FD007208F6007D08F2007508D4
:10025800FD007108F5007D08F1007408FD007008C4
:10026800F4007D08F00077080319B0297208FA0035
:10027800F217F61777087302F70003196A2908308E
:100288007702031C6029F7007408F9007508F40068
:100298007608F500F60108307702031C6029F7009C
:1002A8007408F9007508F400F50108307702031C9A
:1002B80060297A08F200B029770803196A2903101F
:1002C800F60CF50CF40CF90CF70B6329A01F772931
:1002D800F909F409F509F609F90A0319F40A0319E1
:1002E800F50A0319F60A7908F80774080318740F51
:1002F800F00775080318750FF10776080318760FCD
:10030800F207A01B9029031CA029F20CF10CF00C99
:10031800F80CF30FA029AC290318A429F809F0094F
:10032800F109F209F80A0319F00A0319F10A031985
:10033800F20A8030FA06A8290130FC006F20B229A1
:100348000230FC006F20B2290430FC004020B229A2
:100358000830FC001A20B2290030FC000000080018
:0E036800831203133A088A0039088200080045
:10037600831203139F01C0309F043509F0007008F3
:1003860083169F051F179F1783126B08F000F00D49
:100396007010F00D7010F00D701070089F041F148F
:1003A60009211F151F1DD9290000D5291F101E0858
:1003B600F100F00183161E08F0040030F104080075
:1003C60083120313FA017308031D7A147708031DB9
:1003D600FA147A0803192F2A033A0319FA297A1804
:1003E600F729F61F2D2A2B2AF21F2B2A2D2A7208EF
:1003F6008039FA00F21376088039F6137A06031963
:10040600082A7A0803192B2A2D2A7708730203195A
:100416000F2A031C232A272A760872020319162A92
:10042600031C232A272A7508710203191D2A031C97
:10043600232A272A7408700203192F2A0318272A49
:10044600FA0803192D2A2B2AFA0803192B2A2D2A12
:10045600031408000310080003140315080008001D
:10046600831203137408003A031D4E2A7508003AD6
:10047600031D4E2A7608003A031D4E2A7708003AD5
:10048600031D4E2AFF30F000FF30F1007F30F200EE
:10049600FF30F300E92A8312031377080319DD2AD4
:1004A60073080319E02A720876068039FA00F217F3
:1004B600F617A0017208F8007108FC007008FD002C
:1004C6007408FD027508031C750FFC027608031CF0
:1004D600760FF802F801FC01FD01031C792A0310CE
:1004E600F20CF10CF00CF80C0130A0007708F302C6
:1004F600031C832A7E302007F3070318E32A882A81
:100506007E302007F307031CE62A1830FA07FD0D94
:10051600FC0DF80DF00DF10DF20DA00D7408F002B2
:100526007508031C750FF1027608031C760FF2029C
:10053600760DA004201CA12A7D14AC2A7408F007AD
:1005460075080318750FF10776080318760AF2077F
:100556007D10FA031F307A05031D8A2A7B1B7D1C3A
:10056600D32A0310F00DF10DF20DA00D7408F00260
:100576007508031C750FF1027608031C760FF2024C
:10058600760D20040139FD070318FC0A0319F80A41
:10059600031DD32AF80CFC0CFD0CF30A0319E32AFD
:1005A600FA1FF8137808F2007C08F1007D08F000C5
:1005B6000030E82A01301121E82A02300320E82A17
:0E05C60004301A20E82A08300A20000008003D
:1005D40083120313F801F9011030FC00710DF80DBA
:1005E400F90D7408F8027508031C750FF902031855
:1005F400022B7408F80775080318750FF907031020
:0A060400F00DF10DFC0BF02A0800C8
:10060E008312031346106B08EF00C920461408002E
:10061E00831203136B08F2007208F100F20A6C08E1
:10062E00F000EC0A700884000008F00071088400E5
:10063E00700880007108840000080319272B132B03
:06064E006B08F00008003B
:0C065400831203138030F6061421080006
:1006600083120313FB017308031D77080319872BFB
:1006700072087606FA007708F3077E30031C442BD5
:10068000F30203188A2B472BF302031C8D2B7208ED
:10069000F8007108FC007008FD00F817F617031049
:1006A000F201F101F0011830A0007D1C612B7408EB
:1006B000F00775080318750FF10776080318760F11
:1006C000F207F20CF10CF00CF80CFC0CFD0C031012
:1006D000A00B552BF21B712BF80DF00DF10DF20D47
:1006E000F3037B1B701C832BF81F832BF00A031969
:1006F000F10A0319F20A031D832BF20CF10CF00C22
:10070000F30A03198A2BFA1FF21300308F2B0130E2
:1007100003208F2B02301A208F2B04300A20000078
:020720000800CF
:10072200831203132230FC00F801F901FA01FB01E4
:10073200FC030319C72B0310FB0CFA0CF90CF80C81
:10074200F30CF20CF10CF00C031C992BFC030319B3
:10075200B92B7408F80775080318750FF90776089E
:100762000318760FFA0777080318770FFB079D2BFC
:100772007408F80775080318750FF9077608031847
:0E078200760FFA0777080318770FFB070800B9
:1007900083120313FD01F801700803190034740675
:1007A000FA00FA1BFD09FB01F41FD82BF409F40A27
:1007B000F01FDC2BF009F00A70087404FA00FA1B31
:1007C000002C7408F802F00D700DF80D7408F8078D
:1007D000F00D0630FC00700DF80D74087018F8026A
:1007E000701CF807F00DFC0BEB2B701CF8077B1846
:1007F0000E2CFD1F0034F009F00AF809F80A003445
:10080000F41F0B2CF01B082C7008F800F001F92BDA
:10081000F001F00A0034F009FB0AE12BF80A740831
:100820007802031DF92BF801F00AF01FF92BFF34B1
:020830000800BE
:10083200831203136B086C046D046E040319562DA6
:100842006E08003C031D2F2C6D08003C031D2F2C4D
:100852006C08033C031D2F2C6B08C73C0318402C6B
:10086200E030BB000F30BC00BD01BE010030BF0054
:100872007630C0003730C1000030C200562D6E08FD
:10088200003C031D4E2C6D08003C031D4E2C6C08D1
:10089200033C031D4E2C6B08A03C03185F2CC73091
:1008A200BB000930BC00BD01BE013330BF005F3068
:1008B200C0002030C1000030C200562D6E08003C3E
:1008C200031D6D2C6D08003C031D6D2C6C08033C50
:1008D200031D6D2C6B08633C03187E2C8830BB0013
:1008E2000630BC00BD01BE013330BF009B30C000EA
:1008F2001430C1000030C200562D6E08003C031DAA
:100902008C2C6D08003C031D8C2C6C08033C031DD1
:100912008C2C6B08103C03189D2CCB30BB00043090
:10092200BC00BD01BE018530BF00B330C0000E3037
:10093200C1000030C200562D6E08003C031DAB2CD6
:100942006D08003C031DAB2C6C08023C031DAB2C54
:100952006B08A93C0318BC2CE630BB000330BC007A
:10096200BD01BE01B830BF00F430C0000B30C10081
:100972000030C200562D6E08003C031DCA2C6D08C3
:10098200003C031DCA2C6C08023C031DCA2C6B08D8
:10099200383C0318DB2C8930BB000330BC00BD019E
:1009A200BE012930BF00FB30C0000A30C100003058
:1009B200C200562D6E08003C031DE92C6D08003C58
:1009C200031DE92C6C08013C031DE92C6B08C83C93
:1009D2000318FA2C9030BB000330BC00BD01BE01ED
:1009E200C330BF000830C0000B30C1000030C2006D
:1009F200562D6E08003C031D082D6D08003C031D9A
:100A0200082D6C08013C031D082D6B08633C03187C
:100A1200192DF230BB000330BC00BD01BE014830CD
:100A2200BF00B430C0000B30C1000030C200562DF0
:100A32006E08003C031D272D6D08003C031D272D69
:100A42006C08013C031D272D6B080E3C0318382D42
:100A5200B530BB000430BC00BD01BE017B30BF001D
:100A6200C130C0000C30C1000030C200562D6E08EB
:100A7200003C031D462D6D08003C031D462D6C08ED
:100A8200003C031D462D6B08CB3C0318562DF1305C
:100A9200BB000530BC00BD01BE010A30BF000D30F5
:0C0AA200C0000E30C1000030C20008008F
:100AAE00003083120313F400C030F5007F30F600DF
:100ABE008830F7005A08F0005B08F1005C08F2007D
:100ACE005D08F30033220030F4000030F5002030D2
:100ADE00F6008130F70030237008DE007108DF0069
:100AEE007208E0007308E1005E08F4005F08F5008C
:100AFE006008F6006108F7000030F0000030F100E9
:100B0E002030F2008130F3002A237008F4007108BF
:100B1E00F5007208F6007308F7005E08F0005F0833
:100B2E00F1006008F2006108F30033220030F40097
:100B3E004030F5001C30F6008C30F70030230800F2
:100B4E00831203137008F8007108F0007208F100A8
:100B5E007308F200F301FB01FC019E30F300FA0171
:080B6E000230FC006F200800BA
:100B760083120313DD0105305D020318C92D5D08DC
:100B86005C07840020308000DD0ABE2D5D085C070E
:100B960084008001DD035D085C07DE000A30F40096
:100BA600F5015A08F0005B08F100EA227808F00027
:100BB6007908F1003030F0075E0884007008800084
:100BC6000A30F400F5015A08F0005B08F100EA2249
:100BD6007008DA007108DB0000307106031DF52D80
:100BE60000307006031DF82DFA2DDD03CE2D08000A
:100BF6000D2E803083120313DA00202EC030DA0067
:100C0600202E9430DA00202ED430DA00202E8030C8
:100C1600DA00202E831203135A08013A0319FC2D19
:100C26005A08023A0319012E5A08033A0319042EE8
:100C36005A08043A0319072E0A2E5B03F0005A08D5
:100C4600F0077008DA007008EF00C9204610DD01D1
:100C56005D085C07840000080319392E5D085C07EF
:100C660084000008EB000723DD0A2B2E461408003B
:100C7600831203135A08EB005B08EC005C08ED00D6
:100C86005D08EE0019245A08F0005B08F1005C08C4
:100C9600F2005D08F3003B08F4003C08F5003D084F
:100CA600F6003E08F70091233F08F5004008F600DD
:100CB6004108F7004208F8007008F5027108031CA5
:100CC600710FF6027208031C720FF7027308031CF9
:100CD600730FF8020A30F4007508F0007608F10088
:100CE6007708F2007808F30074080319812EF30CD4
:0E0CF600F20CF10CF00CF313FF3E782E080008
:100D0400B4218A110A128000840AB90A0319BA0AA2
:080D1400F003031D822E08000C
:100D1C0083120313DB01DC01DD01DE01DF01E001E5
:100D2C00E101E20100306202031DA62E00306102D7
:100D3C00031DA62E04306002031DA62E00305F0298
:100D4C000318E52E5A08EB00BB210030F200F3002B
:100D5C0083125B08F0075C0803185C0FF1075D0851
:100D6C0003185D0FF2075E0803185E0FF307700897
:100D7C00DB007108DC007208DD007308DE00073050
:100D8C00FC007D30FD00FD0BC92EFC0BC92E5F084D
:100D9C00F0006008F1006108F2006208F300F00A4C
:100DAC000319F10A0319F20A0319F30A7008DF0098
:100DBC007108E0007208E1007308E200982E0A3016
:100DCC00F4005B08F0005C08F1005D08F2005E08BE
:100DDC00F30074080319F92EF30CF20CF10CF00C5F
:100DEC00F313FF3EF02E7008DB007108DC00720874
:080DFC00DD007308DE000800B1
:100E0400FF3083120313C300FF30C400FF30C5005A
:100E1400FF309F01C0309F043509F000700883162D
:0C0E24009F051F179F1783121F14080062
:100E300083160313861106110612861206138613F3
:100E400083128611061186130613861206122620B7
:100E50002620262086160616861533208611262083
:100E600086153320861126208615332086112620EC
:100E7000061286153320861126208615332086110A
:100E800086128617861533208611262086130616AD
:100E900086153320861106128615332086112620EA
:100EA00086153320861106168615332086112620D6
:100EB0000612861533208611861706178616061623
:0C0EC000861533208611262046140800F9
:100ECC00831203137008F8007108F000F101F201AD
:100EDC00F301FB01FC019630F300FA01F01F7C2FAB
:100EEC00F809F009F80A0319F00AFA177008F1006A
:0C0EFC007808F000F801F2014020080026
:100F380021308400183083120313F0008430B90084
:080F48000730BA008226080000
:1010000083120313E601E701E801E901EA015A0846
:10101000E2005B08E3005C08E4005D08E5006508A9
:10102000FF3A031D1D286408FF3A031D1D286308AD
:10103000FF3A031D1D286208FF3A031D29285E0898
:10104000EB002130EC008A110F238A150330F000E9
:10105000852A0130E000E41F392880306406F00062
:101060007008E400E00AE70A5E0884002D30800082
:10107000DE0A0030F0006506031D4828700864068B
:10108000031D482870086306031D48286208003ABB
:10109000031D53285E08EB002530EC008A110F2356
:1010A0008A15F001852A6508FF3A031D6128640846
:1010B000003A031D61286308003A031D6128620895
:1010C000003A031D6D285E08EB002730EC008A1102
:1010D0000F238A156008F000852A0030F4000030E4
:1010E000F5000030F6007F30F7006208F00063087A
:1010F000F1006408F2006508F3008A11E3218A1503
:10110000013003180030F00070080319A4286208A9
:10111000F0006308F1006408F2006508F300003095
:10112000F4000030F5002030F6008230F7008A111C
:1011300030238A157008E2007108E3007208E400A9
:101140007308E500EA036D280030F4000030F50074
:101150002030F6008230F7006208F0006308F100EA
:101160006408F2006508F3008A11E3218A15013052
:10117000031C0030F00070080319DB286208F0003F
:101180006308F1006408F2006508F300CD30F40054
:10119000CC30F5004C30F6007B30F7008A1130235C
:1011A0008A157008E2007108E3007208E400730811
:1011B000E500EA0AA428FF306205F800FF30630565
:1011C000F9007F306405FA0000306505FB007808FF
:1011D000F4007908F5007A08F6007B08F700F40DB2
:1011E000F50DF60DF70D741000306205F0000030BB
:1011F0006305F10000306405F200FF306505F3007F
:101200007008E2007108E3007208E4007308E5006A
:1012100074086204F00075086304F1007608640441
:10122000F20077086504F3007008E2007108E3003B
:101230007208E4007308E5007F306502F000700872
:10124000E1000130E5007008F4006208F000630876
:10125000F1006408F2006508F300740803193729E7
:10126000F00DF10DF20DF30D7010FF3E2E297008F8
:10127000E2007108E3007208E4007308E500650805
:10128000303EF0005E08840070088000DE0AE70A45
:1012900080306A06F0008030013A7002031C592940
:1012A0008030063AF00080306A067002031C59292B
:1012B00061295E0884002E308000DE0A0130E600DD
:1012C000E70A0630E1006108003A0319C329E50185
:1012D0006208F0006308F1006408F2006508F3009A
:1012E000F00DF10DF20DF30D7010F00DF10DF20D8A
:1012F000F30D70106208F00763080318630FF1071D
:1013000064080318640FF20765080318650FF307F4
:101310007008E2007108E3007208E4007308E50059
:101320006208F0006308F1006408F2006508F30049
:10133000F00DF10DF20DF30D70107008E200710860
:10134000E3007208E4007308E5006508303EF00031
:101350005E08840070088000DE0AE70A6608003A2A
:10136000031DC129EA036A08003A031DC12901309F
:10137000E9005E0884002E308000DE0A0130E600BD
:10138000E70AE10363296908013A031DC829E70355
:10139000FF305E07840000082E3A031DD129DE03CA
:1013A000E7038030003AF00080306A0670020318CC
:1013B000DB290130E80080306A06F0008030003A16
:1013C00070020318E5290230E8006A08E100803065
:1013D000093AF00080306A067002031CF129E80A1D
:1013E000F3290230E80768086707F100F2010318E3
:1013F000F20A80307206F00080307002031D022A6B
:101400005F08710203180B2A5E08840030308000E8
:10141000DE0AE70AF3296A08003A03194C2A5E0833
:10142000840065308000DE0A80306A06F00080307B
:10143000003A70020318242A5E0884002D308000D0
:10144000DE0A6A08003CEA006A08E1008030093AD6
:10145000F00080306A06700203183C2A0A30F4005B
:101460006108F0008A11C8238A153030F0075E0841
:10147000840070088000DE0A0A30F4006108F00081
:101480008A11C8238A157808F0003030F0075E080A
:10149000840070088000DE0A68086707F0007008A2
:1014A000E7005F087002F1007108E1008030003A47
:1014B000F00080307106700203186A2A8030003A0A
:1014C000F0008030610670020318692AE103DE0330
:1014D0005E2A812A80306106F0008030003A700276
:1014E0000318812A80306106F0008030003A7002D3
:1014F0000318812AE10A5E08840030308000DE0A89
:0C150000722A5E0884008001F0010800DF
:10150C008A119C278A150730831603139C000E3012
:10151C009F0005148A1102278A158A1118278A152B
:10152C000130EF008A11C9208A150C30EF008A11A6
:10153C00C9208A15DA018A118E268A157008D60000
:10154C007108D7007208D8007308D9007008DA0047
:10155C007108DB004730DC008A11BB258A1501308D
:10156C00DA000130DB002B30DC008A11FB258A15F8
:10157C000130DA000430DB004730DC008A11FB2537
:10158C008A150730FC007D30FD00FD0BCB2AFC0BCF
:10159C00CB2A5608F0005708F1005808F2005908F9
:1015AC00F3008A11A7258A157008DA007108DB0090
:1015BC007208DC007308DD008A1157258A15700843
:1015CC00DA007108DB007208DC007308DD004A30B9
:1015DC00DE000A30DF0000200230DA000130DB00D0
:1015EC003030DC008A11FB258A150230DA00053018
:1015FC00DB004A30DC008A11FB258A150730FC0021
:10160C007D30FD00FD0B082BFC0B082B5608DA0077
:10161C005708DB005808DC005908DD008A113B260E
:10162C008A158A1166278A150030F4000030F500FF
:10163C002030F6008230F7008A1133228A157008A8
:10164C00DA007108DB007208DC007308DD00513031
:10165C00DE000530DF0000200130DA000A30DB004C
:10166C003630DC008A11FB258A150130DA000C308B
:10167C00DB005130DC008A11FB258A150730FC0099
:10168C007D30FD00FD0B482BFC0B482BA02A4D2B6D
:080F08004E3461344E34003414
:040F10003034003445
:080F140049344E344634003428
:0A0F1C0041344434433420340034DF
:0A0F26004E345434433420340034B8
:020F30000F347C
:060F3200543420340034A9
:02400E004A2F37
:00000001FF
