:020000040000FA
:0400000080311E2805
:100008007E1480310B1F1C284E01191B0F1F13284B
:10001800400147088A0046080A0080311C28991BBD
:100028008F1F1C28400145088A0044080A008031B7
:100038007E1009008031202870308400003085004F
:1000480009308131A12180312030840000308500C1
:100058002D308131A1217E1040018031E3284E01ED
:100068008F1E0800813177218031FA007A08F60066
:10007800AA307606031D4E28F8017608FA0078089B
:100088002A3E860087017A0881000130FA007A0842
:10009800F80708007608FA0078082A3E86008701E3
:1000A8007A0881000130FA007A08F80709307802E6
:1000B800031C080040012B08FA007A08CC00F8015C
:1000C800F601F701F70A0800AA30FB007B08400197
:1000D800A0004B08FB007B08A1004908FB007B0837
:1000E800A2004808FB007B08A3004A08FB007B0825
:1000F800A400A501A601A701A801A901F8010A30D9
:100108007802031808007808203E86008701010855
:100118008131812180310130FB007B08F807832879
:100128004E0199131F30FA000130FB008131AD21D7
:1001380080314E0119130430FA000130FB0081317F
:10014800A721083054019F0090309D0024309E0064
:10015800A0309B0001309C00F501F4010830FC0040
:100168007C08F300F201F101F0014E019917080033
:100178004001980199019A013F3092004030930064
:100188002030940048307E01CE00C3013430B800DE
:10019800C401B901CF01BA01C501D0013F30BB008C
:1001A800C6013F30D1000C30A30011309D000F3044
:1001B800A4000E307D01CD001530CB000800813140
:1001C80039218031F701F70A4001CB01E730CD0032
:1001D8004D08C900C801CA01CA0A77080319F928D5
:1001E800803168208031F701FC288031332080314C
:1001F80040014C08031902299917F1289913F1288D
:100208000830730203181C2974083C3E86008701D5
:10021800010854019A000130F9007908F407083000
:1002280074020318F4010130F9007908F307080093
:100238004E011913080054019D1C24291D121D1676
:100248001908F9007208343E860087017908810090
:100258000130F9007908F207083072020318F20138
:100268000130F9007908F0070800813191218131C6
:100278008031BC20813181315F21813181319921E7
:10028800813181318921813181315121813181311E
:100298006B218131803194200800013045019000A4
:1002A8008F019101F9308D008C014E019010A03022
:1002B80045018E000800103051018D008F01910119
:1002C8000330930090019201101808006829083043
:1002D80042019F0090309D0024309E00A0309B007A
:1002E80001309C0008004E018F1E772942019D1C99
:1002F8007F291D121D1619080800FA004E010F1E4D
:1003080082297A0842019A000800803046019A0042
:100318007C309900C030980008004F019601970181
:10032800980199019A019B010800013041019D0043
:1003380050309E009B019C0108006400800101313F
:10034800890BA22900347B084001C7007A08C6003F
:0E03580008007B084001C5007A08C4000800B8
:020000040001F9
:0A000E009C3FFF3F9F3FFF3FFF3F75
:00000001FF
