:020000040000FA
:1000000080313228080008007E1480312E00961AB4
:100010008C1E0E289731B927803130280B1F3028CD
:10002000191A0F1E1A2821005B088A005A080A00B4
:1000300080313028991A8F1E2428210059088A00FF
:1000400058080A008031302897188D1C2B289631CB
:100050008626803130281A18101C30288831542008
:100060007E10090080313428893084009730850063
:10007000DC308600003087000F3096319D268031BD
:100080002030840000308500303096319726803152
:10009000A0308400003085003C30963197268031B6
:1000A000203084000130850025309631972680313C
:1000B000A0308400013085003030963197267E10C4
:1000C0002000803163289731EE2780318B170B1782
:1000D000A9302000D0000D30D10096318B26803120
:1000E00003302000D0000E30D100963191268031AF
:1000F0002000BF010A30E9006908C3000A30E900A6
:100100006908C2000A30E9006908C100C001B601EF
:100110001430A0000030A100BC01BE01BD01AD0142
:10012000AC0186312F2680312000981018107830CD
:10013000A2000030A300EA01EB0106302000E90034
:100140003030890BA128E90BA128000001302000E4
:10015000EA070030EB3D6B08803AE900873069021E
:10016000031DB428D0306A02031C9D288B318023E4
:1001700080312000B201B20A32080319C5288C313F
:100180007D2480312000B201C8288B31DA238031F0
:1001900020003C08031DF82838080319F428013012
:1001A000BB020430D000F030D1003B08E900690800
:1001B000D2008A317D22803120003B08031DF428C3
:1001C0000130E9006908BA070530D000F030D100ED
:1001D0003A08E9006908D2008A317D2280313C303A
:1001E0002000E9006908BB003C30E9006908BC0058
:1001F0003808031921293608031D07290230E900B0
:100200006908B6001430A0000030A100392902307E
:100210003606031D122920082104031D1229B601E8
:10022000B60A392909303A02031C3929B601B80146
:100230003C30E9006908BB00BA018C31BC24803134
:1002400039292C08803A7C3E031C292936080319D9
:10025000FE2802303606031D312920082104031927
:100260000F293408803AE9002C08803AE902031883
:10027000B6018931C1218031003A0319CD290030FE
:100280008931A5218031003A0319772920003D08E2
:10029000031D77290330E9006908BD002208230403
:1002A000031D57297830A2000030A30074293808B4
:1002B000031D68293708031D68290130E900690812
:1002C000B90706303902031C7429B901B90A742927
:1002D0003808031974293708031D7429B8013C3004
:1002E000E9006908BB00BA018C31BC2480310130BF
:1002F0008931A5218031003A03199C2920003D084D
:10030000031D9C290330E9006908BD00220823046D
:10031000031D8F297830A2000030A30099293708E7
:10032000031D9929B801B80A3C30E9006908BB00EF
:10033000BA018C31BC24803102308931A521803151
:10034000003A0319AF2920003D08031DAF292208F8
:100350002304031DAF297830A2000030A30002302F
:100360008931A5218031003A0319CD2903302000BD
:100370003E06031DCD293D08031DCD29BE010330D6
:10038000E9006908BD003708031DC929B701B70A8C
:10039000CA29B7018C31BC248031200038080319E8
:1003A000D82937080319D6290630212A0530212AF1
:1003B0003903031DE629F030E9006908B400370865
:1003C0000319E429F630212AF330212A02303906B4
:1003D000031DF529EE30E9006908B4003708031958
:1003E000F329EE30212AEB30212A03303906031D90
:1003F000042AEC30E9006908B40037080319022A1E
:10040000DE30212ADB30212A04303906031D132A6D
:10041000EA30E9006908B40037080319112ABE3030
:10042000212ABB30212A05303906031DBC28E830BB
:10043000E9006908B40037080319202A7E30212A10
:100440007B30E9006908C000BC282000DC005C3576
:10045000CC3E860087015C08D53E840085010008FB
:10046000800AD6000130D635890B332AA0305607D2
:10047000D7000630D8005808D0005C089731CA274A
:10048000823120005707D900590884008501403F78
:10049000803F413F813F5C08D53E860087010330A5
:1004A0000102031C582A5C08D53E860087018101A1
:1004B0000630D6005608D0005C089731CA27823132
:1004C000A23E86008701403F2000D700413FD80070
:1004D0000630D9005908D0005C089731CA2782310C
:1004E000A03E86008701403F2000DA00413FDB004C
:1004F00058085B02031D7E2A57085A02031C002B72
:100500000630D6005608D0005C089731CA278231E1
:10051000A43E86008701403F2000D700413FD8001D
:100520000630D9005908D0005C089731CA278231BB
:10053000A23E86008701403F2000DA00413FDB00F9
:1005400058085B02031DA62A57085A02031CB82A42
:100550000630D6005608D0005C089731CA27A23E64
:1005600086008701403F2000D400413FD5000800AD
:100570000630D6005608D0005C089731CA27823171
:10058000A43E86008701403F2000D700413FD800AD
:100590000630D9005908D0005C089731CA2782314B
:1005A000A03E86008701403F2000DA00413FDB008B
:1005B00058085B02031DDE2A57085A02031CF02A62
:1005C0000630D6005608D0005C089731CA27A43EF2
:1005D00086008701403F2000D400413FD50008003D
:1005E0000630D6005608D0005C089731CA27A03ED6
:1005F00086008701403F2000D400413FD50008001D
:100600000630D6005608D0005C089731CA278231E0
:10061000A43E86008701403F2000D700413FD8001C
:100620000630D9005908D0005C089731CA278231BA
:10063000A03E86008701403F2000DA00413FDB00FA
:1006400058085B02031D262B57085A02031C382B3F
:100650000630D6005608D0005C089731CA27A03E65
:1006600086008701403F2000D400413FD5000800AC
:100670000630D6005608D0005C089731CA27823170
:10068000A43E86008701403F2000D700413FD800AC
:100690000630D9005908D0005C089731CA2782314A
:1006A000A23E86008701403F2000DA00413FDB0088
:1006B00058085B02031D5E2B57085A02031C702B5F
:1006C0000630D6005608D0005C089731CA27A43EF1
:1006D00086008701403F2000D400413FD50008003C
:1006E0000630D6005608D0005C089731CA27A23ED3
:1006F00086008701403F2000D400413FD50008001C
:100700002000D90100308B1B0130D8004E08883101
:1007100093208331003A03199B2B01302000D6002F
:100720005608CE0703304E06031D862BCE01CD01A1
:10073000D901D90AA32B20004E088831A920833182
:10074000003A03198D2B20005908031D08000930B9
:10075000D6005608D0004E089731CA2783312A3E6A
:100760002000D7005708DA005A089731162783313E
:10077000003A0319CE2B20005A088600013087006A
:100780000130433F21009D0020005A0886000130BF
:1007900087000130423F21009C00ED2B20005A08C9
:1007A0009631E9268331003A0319E82B20005A08D4
:1007B0008600013087000130423F21009C0020006C
:1007C0005A088600013087000130433F2100EC2B9E
:1007D000603021009C0060309D0020004A08D60057
:1007E000560821009C0720005A0886000130870027
:1007F0000130413F21009E0020005A08043E86003F
:1008000001308700013622008D0020005A08860042
:10081000013087000130453F21009B0093172000E5
:10082000CD01CD0AD001D00A4E088A311822833179
:100830008B132100131420005A08043E8600013057
:1008400087000108D600D7010930D635D70D890BAE
:10085000252C560821009000200057082100910007
:100860002000581C352C8B17362C8B132000CC0104
:1008700008002000DF01E001E2014B08D800013050
:10088000D835890B402CA0305807D9000630DA0043
:100890005A08D00062089731CA27843120005907CE
:1008A000DB005B08860087016235CC3E8400850151
:1008B000403F0002D4000131413F003BD500973159
:1008C0006B27843120005508DE005408DD005E08E7
:1008D0006002031D6D2C5D085F020318732C5E0817
:1008E000E0005D08DF000130D8005808E20703305F
:1008F0006202031C3D2C00306002653003195F0268
:10090000031CD12C0130D8004B08D23E8600870151
:100910005808810706300102031C08004B08E23E1C
:10092000860087010108D8005808E1006108031912
:100930009C2C0130E102A02C1E30D8005808E100A8
:10094000DC01DC0AE30163084B060319AF2C6308E2
:10095000E23E86008701010861060319DC010130CF
:10096000D8005808E30703306302031CA32C5C087B
:100970000319962C6108D8004B08E23E86008701D7
:1009800058088100E3016308D23E86008701810197
:100990000130D8005808E307033063020318080049
:1009A000C32C00306002323003195F0203180800C4
:1009B0004B08D23E860087010108031908004B0846
:1009C000D23E86008701013081020800F901003023
:1009D0008B1B0130F80020004E0888313F20843105
:1009E000003A0319012D0130F60076082000CE07E9
:1009F00003304E06031DEB2CCE01CD01F901F90A9F
:100A0000092D20004E0888312A208431003A03192C
:100A1000F32C7908031D08000930F6007608F00071
:100A200020004E089731A82784312A3EF700770826
:100A3000FA007A089631FE268431003A0319302DE7
:100A40007A088600013087000130433F21009D0075
:100A50007A088600013087000130423F9C004B2D10
:100A60007A089631B3268431003A0319462D7A0864
:100A70008600013087000130423F21009C007A0847
:100A80008600013087000130433F4A2D603021004D
:100A90009C0060309D0020004A08F6007608210086
:100AA0009C077A088600013087000130413F9E0094
:100AB0007A08043E860001308700013622008D004E
:100AC0007A088600013087000130453F21009B00F5
:100AD00093172000CD01CD0AF001F00A4E088A31AB
:100AE0009F2284318B13210013147A08043E860060
:100AF000013087000108F600F7010930F635F70DDF
:100B0000890B7E2D7608900077089100781C8A2D3D
:100B10008B178B2D8B132000CC01080020005D0863
:100B2000093E8600013087000108803ADE005D083A
:100B30000E3E8600013087000103FF3A803ADE0254
:100B40000318CD2D5D080A3E860001308700013074
:100B5000810741310318810A5D080A3E8600013091
:100B60008700403FDE00413FDF0000305F02413040
:100B700003195E02031C0C2E5D080A3E860001303C
:100B800087000030C03FC13F5D088600013087000C
:100B900001088C310D2485310C2E5D08093E86003C
:100BA000013087000108DE00DF01DE1BDF035D0886
:100BB0000E3E8600013087005F08803A803C031DAE
:100BC000E32D5E0801020318032E02302000DE0030
:100BD0005D08023E8600013087005E0881005D08E6
:100BE0000A3E8600013087000030C03FC13F5D08EB
:100BF0008600013087000108DE005E08D0008031E9
:100C0000022085310C2E20005D080A3E860001304E
:100C100087000030C03FC13F20005D080C3E8600C9
:100C2000013087000130810741310318810A5D08D6
:100C30000C3E8600013087001600403ADE001600A8
:100C4000DE04031D08005D080C3E860001308700AD
:100C50000030C03FC13F5D088631C4260800003027
:100C60002000D000F030D10097315C278631FF3A68
:100C7000031D3C2E0330442E00302000D000F03005
:100C8000D10097315C2786312000D2005208B9008C
:100C90000130D000F030D10097315C278631FF3A27
:100CA000031D552E2000B801612E01302000D00018
:100CB000F030D10097315C2786312000D2005208F5
:100CC000B8000230D000F030D10097315C27863177
:100CD000FF3A031D6E2E2000B7017A2E023020004D
:100CE000D000F030D10097315C2786312000D2004F
:100CF0005208B7000330D000F030D10097315C27A4
:100D00008631FF3A031D872E2000B501932E033054
:100D10002000D000F030D10097315C2786312000D0
:100D2000D2005208B5000430D000F030D100973125
:100D30005C278631FF3A031D9F2E3C30A72E0430DE
:100D40002000D000F030D10097315C2786312000A0
:100D5000D2005208BB000530D000F030D1009731EE
:100D60005C278631FF3A031DB82E2000BA01080027
:100D700005302000D000F030D10097315C272000F2
:100D8000D2005208BA0008002000D6008B1F0F2F97
:100D90008B135608053E860001308700403FD00087
:100DA000413FD100423FD200433FD3000430D3360D
:100DB000D20CD10CD00C890BD72E5608053E8600DC
:100DC000013087005008810241315108813B413197
:100DD0005208813B41315308813B7D315608033E27
:100DE000860001308700403FD000413FD1005008CD
:100DF000D2005108D300D401D5015608053E860023
:100E0000013087005208810741315308813D41314B
:100E10005408813D41315508813D8B170800560823
:100E2000053E860001308700403FD000413FD100A1
:100E3000423FD200433FD3000430D336D20CD10C12
:100E4000D00C890B1D2F5608053E86000130870007
:100E50005008810241315108813B41315208813BA8
:100E600041315308813B7D315608033E86000130F5
:100E70008700403FD000413FD1005008D2005108C8
:100E8000D300D401D5015608053E86000130870005
:100E90005208810741315308813D41315408813D59
:100EA00041315508813D0800F9007908860001307C
:100EB00087000108F4007408F80079089631B32619
:100EC0008731003A031D8F2F7908043E86000130D8
:100ED00087000108F400F5010930F435F50D890BA0
:100EE0006D2F220015087502031D782F1408740257
:100EF00003188B2F0130F4007908053E860001307D
:100F00008700740881071F300102031C080079085C
:100F100089312121080079088931212108007908C7
:100F2000043E8600013087000108F400F501F43525
:100F3000F50D7835CC3E86008701403FF600413FF5
:100F4000F700220014087602F0001508773BF10044
:100F500097313127873175087102031DB12F74084D
:100F600070020318C02F6030F4007908023E86003A
:100F70000130870074088100790897312327080021
:100F80007908033E8600013087005E300102031CB1
:100F9000D62F6030F4007908023E860001308700C9
:100FA0007408810079089731232708000230F40083
:100FB0007908033E86000130870074088107080025
:100FC000200044080319E02F4508BC3E8600870135
:100FD0000108D0005008D1000130D0005008C507EA
:100FE000083045020318C5012E0099120130200077
:100FF000C4022E0099162000510808000030080095
:1010000008008831EF2008002000D5000330550289
:10101000031808000930D4005408D000550897314F
:10102000CA27323E86000130870081110800200067
:10103000D50003305502031808000930D4005408C5
:10104000D00055089731CA27323E8600013087000C
:1010500001140800F5000330750203183D2809301B
:10106000F4007408F00075089731A827323E860016
:101070000130870001080139080000300800F50040
:1010800003307502031852280930F4007408F00088
:1010900075089731A827323E860001308700010C81
:1010A00001390800003008002E00101020002B0825
:1010B000F1002A08F00097314D27883120002808D8
:1010C00029040319080029088A0028080A00883121
:1010D00008008431392488312000E50165088E310B
:1010E0005D26883101302000E4006408E507033004
:1010F0006502031C6E289731DC2708002A30200087
:10110000D1005108D2003C30D10052085102031CDA
:10111000080052089631E026883109302000D100BD
:101120005108D20783282000D50003305502031848
:10113000A7280930D4005408D00055089731CA2791
:10114000323E860001308700010C01390800003072
:1011500008002000D500033055020318BD280930CF
:10116000D4005408D00055089731CA27323E860073
:101170000130870001080139080000300800200014
:10118000D4015408D3000330D335FF3E031DC428D7
:101190005335A03E8B315823883101302000D300D5
:1011A0005308D4070330540203180800C128200054
:1011B000D700570888311720883120005708883118
:1011C0000420883109302000D6005608D000570886
:1011D0009731CA2788312A3E9631E0260800073029
:1011E000210098009A019B0122008E018F0190013D
:1011F0009101920193014130210094008B309500C0
:101200000F309600C43093002E008D109714080004
:10121000563020009F000B309D00DC309C001D08E4
:10122000A7001C08A6002E008C1296167F30200006
:10123000D0001630D10096318B26903020009E00D1
:101240000800F1007108083E860001308700011691
:101250000230F0007108033E8600013087007008FC
:1012600081006030F0007108023E86000130870086
:101270007008810008002000D700033057020318CF
:1012800052290930D6005608D00057089731CA278E
:10129000303E860001308700403F2000D400413FAF
:1012A000D5000800D401D50108002000D600033085
:1012B000560203186D290930D4005408D00056088E
:1012C0009731CA27323E860001308700010C20008A
:1012D000D500D50C550C013908000030080022005B
:1012E0009D1C74291D121D161908F00020004608C7
:1012F000BC3E86008701700881000130F000700854
:10130000C607083046020318C6010130F000700815
:10131000C4070800F100033071020318A329710803
:10132000F0000330F035FF3E031D92297035A23ED8
:1013300086000130870002300106031DA12901301B
:10134000080000300800003008002000D100033001
:1013500051020318BF295108D0000330D035FF3E99
:10136000031DAE295035A23E8600013087000230B1
:101370000106031DBD2901300800003008000030BF
:1013800008002000CF01CF0A8B3130238931003A89
:10139000031DCC2900300800973198278931873107
:1013A000FE2789312000E8006808CF0088317E20C0
:1013B0008931963183260130080008302000470229
:1013C0000318F7294808C43E860087010108220057
:1013D0009A000130F00070082000C8070830480269
:1013E0000318C8010130F0007008C70708002E007C
:1013F0001912080024008F01900101309100F03093
:101400008D0060308C000D082000AB0024000C081B
:101410002000AA002E0010101A1400302000D00066
:101420000830D10096319126053024008E00080046
:101430002000D1002D2A500C031C91100318911488
:101440000800500C031C1111031811150800500C52
:10145000031C91110318911508005108003A031953
:101460001B2A013A0319212A033A0319272A382A89
:101470000800A030860001308700003084009030E2
:10148000850030302000DA005A0803194B2A120078
:101490001E00DA0B472A2000DB015B088C310D248B
:1014A0008A3101302000DA005A08DB0703305B0282
:1014B000031808004D2A2A3086000130870030309A
:1014C0008400903085001B302000D8005808031994
:1014D0006D2A12001E00D80B692A2000D901590874
:1014E0008831D7208A3101302000D8005808D90728
:1014F00003305902031808006F2A00308B1B01309B
:101500002000D300510830009B002000500830001C
:101510009A002000520830009C001E171E158B13E5
:1015200055309F00AA309F009E149E18952A1E11C8
:101530002000530C031C8B1303188B170800F100B9
:10154000B62A700C2000031C911003189114080097
:10155000700C2000031C1111031811150800700CE9
:101560002000031C91110318911508007108003A1E
:101570000319A12A013A0319A82A033A0319AF2A29
:10158000C12A08002000960197019801F1309100CE
:1015900092018030930040303E00CE00C3011130F4
:1015A000B800E501C401B901CF01BA01C501D001FC
:1015B000FF30BB00FF30C600FF30D10017303D00C8
:1015C000CB0010303E00A60008002000D1004708E4
:1015D0000319E72A2E00191AF22A200051082200C6
:1015E0009A00062B191220005108D0004908C43E69
:1015F00086008701500881000130D0005008C907DB
:10160000083049020318C9010130C7022E0019161B
:1016100008002000DF005F08860001308700010815
:10162000823125228B3120005508DE005408DD0070
:101630008B1F262B8B135F08063E86000130870028
:101640005D08C03F5E08C13F8B1708005F08063E7B
:101650008600013087005D08C03F5E08C13F08007A
:101660002000E7016708883193208B31003A031D81
:101670004B2B200067088831A9208B31003A0319D1
:101680004B2B963180268B31003A031D492B833139
:1016900080230030080001302000E6006608E707DC
:1016A00003306702031C322B8831692001300800A7
:1016B0002000D2005208023E86000130870002302E
:1016C0000106031D080052080A3E8600013087000B
:1016D0000130810741310318810A52080A3E860011
:1016E0000130870016000104031D080052080A3E5D
:1016F000860001308700FF30C03FFF30C13F080047
:101700002E0099126F302000D0000930D1009631A0
:10171000BC268B312E001912DD302000D00009309C
:10172000D1009631C526083022009F0090309D00E0
:1017300024309E00A0309B0001309C002000C90195
:10174000C8010830D2005208C700C601C501C40153
:101750002E00991608002000DC005C0A860001308B
:101760008700010889313B218B3120005408D800C3
:101770005508D900DA01DB015C08053E860001301E
:1017800087005808C03F5908C13F5A08C23F5B084C
:10179000C33F5C08053E8600013087000430813578
:1017A0004131810D4131810D4131810D7D31890BF7
:1017B000CF2B08002E008F1E08008731E0278B31C9
:1017C0002000D2005208B100AA303106031DF72BC9
:1017D000B3013108D2003308203E86000130870073
:1017E000520881000130D2005208B30708003108C6
:1017F000D2003308203E8600013087005208810065
:101800000130D2005208B30709303302031C08002C
:10181000B301B101B201B20A08002000D800580893
:10182000D6000330D635FF3E031D122C5635A03EA0
:10183000D7005708D9005908023E860001308700BA
:1018400081015908053E8600013087000030C03F05
:101850000030C13FC23FC33F59080A3E86000130F5
:1018600087000030C03FC13F59080C3E8600013060
:1018700087000030C03FC13F590A86000130870011
:101880000108883104200800F00120004E088A3148
:101890009F228C3120004C080319512C21009313F6
:1018A0007A2C210093130930FB007B08F000200004
:1018B0004E089731A8278C312A3EFC007C08FD0099
:1018C0007D089631FE268C31003A031D6C2C7D0874
:1018D000873154278C31702C7D089631A3268C31AA
:1018E00020004E35CC3E8600870122001408C03F00
:1018F0001508C13F8431E624080022002108200099
:10190000D2005208AF00220022082000D200520864
:10191000AD00220023082000D2005208AC002200B3
:1019200024082000D2005208AE00AA30D20052088B
:101930002100B20020003008D20052082100B3007C
:10194000B401B501B601B701B801B901BA01BB01D3
:101950002000B3010A303302031808003308B23EF6
:101960008600870101088A31E5228C310130200090
:10197000D2005208B307AA2C00302000D000F0306B
:10198000D1003908D4005408D2008A317D228C312C
:1019900001302000D000F030D1003808D4005408C5
:1019A000D2008A317D228C3102302000D000F0300C
:1019B000D1003708D4005408D2008A317D228C31FE
:1019C00003302000D000F030D1003508D400540896
:1019D000D2008A317D228C3104302000D000F030DA
:1019E000D1003B08D4005408D2008A317D228C31CA
:1019F00005302000D000F030D1003A08D40054085F
:101A0000D2008A317D2208002000DA005A08023E06
:101A100086000130870001080319422D5A08033E51
:101A2000860001308700403FD800413FD900D936B9
:101A3000D80CD936D80C5A08033E860001308700EE
:101A40005808810241315908813B7F315A0A86008A
:101A500001308700010889313B2120005408D8005B
:101A60005508D900D936D80CD936D80C5A08033EB7
:101A70008600013087005808810741315908813DAF
:101A80007F3108005A0A8600013087000108893139
:101A90003B2120005A08033E86000130870054088D
:101AA000C03F5508C13F08002000E4006408E20080
:101AB0000330E235FF3E031D592D6235A03EE300A1
:101AC0006308E500650A8600013087000108883157
:101AD00093208D31003A031908002000650A860022
:101AE000013087000108893155218D31003A0319F1
:101AF00008002000650897313F278D3120006508D8
:101B00008F3179278D3120006508023E8600013033
:101B1000870003300102031C952D65088600013003
:101B2000870001088C310D248D3120006508E2000A
:101B30006208DD006508023E86000130870001353D
:101B4000DC3E86008701413F8A00403F0A008D311C
:101B5000080020003208031DB22D38080319B22DE9
:101B6000B201B20A03303E020318C32D023089319C
:101B70008A218D31003A0319C32D0130F200720819
:101B80002000BE07CC2D023089318A218D31003AE8
:101B9000031DCC2D2000BE012000220823040319C0
:101BA000D52D0130A2020030A33B200821040319E7
:101BB000DD2D0130A0020030A13B3C080319F72DB8
:101BC00036080319F72D0130BC02F72D9810B0012B
:101BD00008009814B001B00A08000310981C031400
:101BE000031CF52D20009814E72D2000E62D360863
:101BF000003A0319E62D013A0319E92D033A0319B6
:101C0000ED2D022E080020003D0803191F2E003084
:101C100089318A218E31003A031D1F2E013089310E
:101C20008A218E31003A031D1F2E023089318A210C
:101C30008E31003A031D1F2E01302000BD0220000E
:101C4000220823040319572EFF3097009812181208
:101C5000981118113F2E98164308332E1816420873
:101C6000332E98154108003E840098300318013E39
:101C7000850000083D2E1815400897004D2E3F089E
:101C8000003A03192B2E033A03192E2E053A031995
:101C9000312E0F3A03193B2E4D2E0130F2007208FF
:101CA000BF070C303F02031C0800BF01080097016A
:101CB000981218129811181108002000E20009303B
:101CC000E0006008D00062089731CA278E312A3EB2
:101CD0002000E1006108E300630897317A278E3124
:101CE000003A0319B22E20006308063E8600013038
:101CF00087006235CC3E84008501403F0002D4005D
:101D00000131413F003BD50097316B278E312000D8
:101D10006308043E8600013087000108E000E1010D
:101D2000E035E10DE035E10D55086102031D9A2E05
:101D3000540860020318A12E63089631CE268E3116
:101D4000A52E63089631D7268E31200063088B318B
:101D500009238E3120006208E0006008D000803145
:101D600003200800200063089631D72608002000D1
:101D70005D080A3E860001308700403FDE00413F9B
:101D8000DF0003305F02E83003195E02031CDC2E23
:101D90005D0886000130870001088C310D248E31EA
:101DA00020005D088600013087000108DE005E0823
:101DB000D0008031022008005D08093E8600013015
:101DC00087000108803ADE005D080E3E8600013083
:101DD00087005D080E3E8400013085000036010258
:101DE000803ADE02031808005D08023E86000130DA
:101DF00087008101810A5D080A3E86000130870064
:101E00000030C03FC13F5D080C3E860001308700B6
:101E1000FF30C03FFB30C13F5D08860001308700C6
:101E20000108DE005E08D00080310220080020009A
:101E30005D080A3E860001308700403FDE00413FDA
:101E4000DF0000305F02093003195E0203182D2FF6
:101E50005D088B31AB238F31312F5D088631C4266D
:101E60008F3120005D080A3E860001308700013076
:101E7000810741310318810A5D080A3E860001305E
:101E80008700403FDE00413FDF0000305F0210303E
:101E900003195E02031C08005D08053E8600013040
:101EA0008700403FDE00413FDF00423FE000433F0C
:101EB000E1000430E136E00CDF0CDE0C890B5A2F18
:101EC0005D08033E8600013087005E08C03F5F0862
:101ED000C13F5D08023E8600013087008101810A12
:101EE0005D080A3E8600013087000030C03FC13FD8
:101EF00008002000DA005A08053E860001308700FD
:101F0000403FD000413FD100423FD200433FD30089
:101F10000430D336D20CD10CD00C890B892F5A083F
:101F2000033E860001308700403FD400413FD5008A
:101F30005408D6005508D700D801D9015008D60258
:101F40005108D73B5208D83B5308D93B5908DE000B
:101F50005808DD005708DC005608DB005B08D0009D
:101F60005C08D1005D08D2005E08D3005A080F3E1D
:101F7000860001308700010AC12FD337D20CD10C63
:101F8000D00C890BBD2F5308DE005208DD0051082C
:101F9000DC005008DB00DE1BE22F5E08031DDA2F99
:101FA0005D08031DDA2F5C08031DDA2F80305B0209
:101FB000031CE22F0030DE000030DD000030DC00CA
:101FC0007F30DB00DE1FF62F80305B02FF305C3B92
:101FD000FF305D3BFF305E3B0318F62FFF30DE0025
:101FE000FF30DD00FF30DC008030DB005B08D0001C
:101FF0005A08093E86000130870050088100080019
:102000000034003400340034003400340034003430
:1020100000340034003400340034003464340134BB
:10202000013401340034003400340034003400340E
:10203000003400340034003400340034643401349B
:1020400002340234003400340034003400340034EC
:10205000003400340034003400340034643401347B
:102060000034013414340A34203400340034003491
:1020700000340134023414340A342034003400347F
:10208000003400340234033414340A34203400346D
:06209000003400340034AE
:102CFE00080020004D0808008831BF2008002E0073
:102D0E008D108C314424080020005108A500500875
:102D1E00A400080020005108A9005008A8000800CF
:102D2E00640080010131890B982E0034FE001200E0
:102D3E001E00FE0B9E2E0034F0007008083E86002A
:102D4E0001308700811408002F0096019701980129
:102D5E0099019A019B010800F0007008083E860058
:102D6E0001308700010E01390800200051082100B2
:102D7E00D900200050082100D8000800200051087A
:102D8E002100DB00200050082100DA00080020009E
:102D9E00D0005008083E860001308700011508005B
:102DAE002000D0005008083E860001308700011137
:102DBE0008002000D0005008083E86000130870031
:102DCE00811008002000D0005008083E8600013017
:102DDE008700010E01390800103031008D008F017F
:102DEE00910103309300920110180800FB2EF100A0
:102DFE007108083E860001308700010CF000F00CCF
:102E0E00700C013908008A315B2297318A313922E0
:102E1E00973188317E2097318831012008002000BB
:102E2E00D1005108083E860001308700010CD00009
:102E3E00D00C500C01390800F0007008083E8600D6
:102E4E000130870081157008083E8600013087002A
:102E5E0001120800F11F08007009F2007109F30059
:102E6E00F20A0319F30A7208F0007308F100080061
:102E7E002000DB008B1F492F8B135B088D3104253F
:102E8E008B1708005B088D310425080024000E1DE9
:102E9E00572F0E1071088D0070088C000E1408004C
:102EAE0071088D0070088C00080020005108300059
:102EBE009B002000500830009A001E171E140000C0
:102ECE00000030001C0808002000D51F080054091F
:102EDE00D6005509D700D60A0319D70A5608D400CA
:102EEE005708D50008002000D00050080319872F7E
:102EFE005008083E8600013087000108013908009D
:102F0E000030080017340F348E340534B7340E34C5
:102F1E0000340F341E3402340034023400340334CF
:102F2E0000342000E70167088D31542597310130B8
:102F3E002000E6006608E707033067020318080062
:102F4E009A2FF200F301721CB02F7008F100710875
:102F5E00F3070310F00D0310F20C7208031DAA2FD5
:102F6E00730808002E008C12200027089D002608EA
:102F7E009C00240825040319080025088A0024084B
:102F8E000A00973108002000D300D201531CD32F22
:102F9E005008D1005108D2070310D00D0310D30CE6
:102FAE005308031DCD2F5208080001302000D00019
:102FBE005008CB0703304B020318CB014B08E23EFF
:102FCE00860087010108D0005008CA00080096311B
:102FDE00AB2697318A31C22297319631F32697313B
:102FEE008931FA21973189310821973197310A2792
:102FFE000800C034F934A434B03499349234823495
:10300E00F834803490340034FF34BF3486341434B2
:0E301E000034783400340434003400340834B4
:020000040001F9
:0A000E009C3FFF379F3FFF3FFF3F7D
:00000001FF
