:020000040000FA
:08000000803102288731EE2F48
:100CF6007B084001B5007A08B40008007B08400173
:100D0600B9007A08B80008007B084001B7007A08E5
:100D1600B60008007B084001BB007A08BA0008004C
:100D26007B084001BF007A08BE0008007B0840012E
:100D3600BD007A08BC000800640080010131890BFF
:100D4600A02E0034013041019D0050309E009B01D1
:100D56009C0108004F0196019701980199019A019B
:100D66009B010800803046019A007C309900C03013
:100D760098000800FA004E010F1EBE2E7A084201A6
:100D86009A0008004E018F1EC52EF00142019D1CDF
:100D9600CE2E1D121D1619080800103051018D00A7
:100DA6008F01910103309300900192011018080001
:100DB600D92E0130450190008F019101F9308D0047
:100DC6008C014E019010A03045018E00080086313E
:100DD600AD2686318731652786318631D026863124
:100DE6008631A52686318631B52686318631DC26C2
:100DF600863187310227863187312327080008305C
:100E060042019F0090309D0024309E00A0309B0040
:100E160001309C000030FA000030FB00863181264C
:100E260087310030FA000030FB0086318726873193
:100E36000030FA000030FB0086317B26F001080006
:100E4600083054019F0090309D0024309E00A03051
:100E56009B0001309C000030FA000030FB00863118
:100E6600932687310030FA000030FB008631992640
:100E760087310030FA000030FB0086318D26F10103
:100E860008008631EA268731F801F80AF501E730CD
:100E9600FC007C08F300F201F401F40A7808031957
:100EA600592F87318D278731F8015C2F8731B92774
:100EB600873176080319622F40019A17512F400196
:100EC6009A13512F4001980199019A013F309200DF
:100ED6005030930059309400FE307E01CE00A03091
:100EE600C3003730B800C401B901CF01BA01C5014A
:100EF600D0013F30BB00C6013F30D1000C309F000F
:100F060011309D000F30A2000E307D01CD000C3057
:100F1600CB000800AA30FB007B084001A000750842
:100F2600FB007B08A1007308FB007B08A200720887
:100F3600FB007B08A3007408FB007B08A400A50146
:100F4600A601A701A801A901F9010A30790203182F
:100F560008007908203E8600870101088631BD26F3
:100F660087310130FB007B08F907A82F4E018F1E41
:100F760008008631C5268731FA007A08F700AA30BC
:100F86007706031DD42FF9017708FA0079082A3E5F
:100F9600860087017A0881000130FA007A08F9078D
:100FA60008007708FA0079082A3E860087017A0841
:100FB60081000130FA007A08F90709307902031C2A
:100FC600080040012B08FA007A08F600F901F7013B
:100FD600F801F80A080070308400003085000A30F5
:100FE60086319F26873120308400003085002030EE
:0A0FF60086319F2640018731442F09
:020000040001F9
:0A000E009C3FFF3F9F3FFF3FFE3F76
:00000001FF
