:020000040000FA
:1000000080313228003008007E1480312E00961A8C
:100010008C1E0E2891318221803130280B1F302810
:10002000191A0F1E1A2821003B088A003A080A00F4
:1000300080313028991A8F1E2428210039088A001F
:1000400038080A008031302897188D1C2B289031F1
:100050000620803130281A18101C30289131972141
:100060007E10090080313428F03084009030850003
:100070005A308600013087000F30903117208031D0
:10008000A030840000308500413090311120803153
:1000900020308400013085003A30903111208031C9
:1000A000A030840001308500433090311120803130
:1000B00020308400023085003030903111207E10D5
:1000C0002000803163289131D62180318B170B17A6
:1000D00053302000A0000A30A1009031642080310C
:1000E00018302000A0001730A10090315B20803133
:1000F0008D310F2580312100CA01D4010A30EB0077
:100100006B08D3000A30EB006B08D2000A30EB001A
:100110006B08D100D001C201C20ACB01C001BF01EE
:10012000BE01CC01BD01BC01CF01CE01F430AE0057
:100130000130AF003C30EB006B08CD002C30A80044
:100140000130A9001E30AC000030AD001430AA0010
:100150000030AB00ED01EE0106302100EB00303045
:10016000890BB028EB0BB028000001302100ED070F
:100170000030EE3D6E08803AEB0087306B02031DC5
:10018000C328D0306D02031CAC282100420803199B
:10019000CF289531BA2580312100C201D22888317B
:1001A0007020803121002E082F04031DF62889318C
:1001B000E5218031063021004A020318E32801308E
:1001C000EB006B08CA071B30E4009830E5004A08D2
:1001D000EB00EC016B08E6006C08E7009131EB21C5
:1001E0008031F4302100AE000130AF00280829042E
:1001F000031DFE282C30A8000130A900933177237D
:100200008031003A03195D2A003093313F23803159
:10021000003A0319432921004F08031D43290330E5
:10022000EB006B08CF002C082D04031D1C291E3089
:10023000AC000030AD0043294903031D31294708B4
:10024000031D31291E30AC000030AD000130EB0041
:100250006B08C80706304802031C4229C801C80AB7
:1002600042294908031D43294708031D43291E301D
:10027000AC000030AD00C901C90A3C30EB006B088E
:10028000C500C401CA01013093313F238031003AD7
:100290000319792921004F08031D79290330EB0048
:1002A0006B08CF002C082D04031D5B291E30AC0009
:1002B0000030AD0079294903031D67294708031D54
:1002C00067291E30AC000030AD00C9017329490810
:1002D000031D79294708031D79291E30AC00003021
:1002E000AD00C901C90A3C30EB006B08C500C40170
:1002F000CA01023093313F238031003A03195D2A4D
:1003000021004F08031D5D2A0330EB006B08CF006E
:100310001E30AC000030AD0003304E06031D5D2AD8
:10032000CE014708031DA529C701C70A02302000D6
:10033000A000F030A10021004708EB006B0820006E
:10034000A2009431312480315D2AC70196294708E3
:100350000319AC290630AD290530EB006B08D0003D
:100360004D08031DC8290130C50204302000A0003B
:10037000F030A10021004508EB006B082000A2002E
:100380009431312480313C302100EB006B08CD00EA
:100390004508031DE2290130EB006B08C407053056
:1003A0002000A000F030A10021004408EB006B0801
:1003B0002000A2009431312480313C302100EB0038
:1003C0006B08C500083044020318E829C601C60AB4
:1003D00008304402031CAB2AC601C901C90A3C30DB
:1003E000EB006B08C500C401CA01AB2AF030EB007A
:1003F0006B08CC0047080319FF29F6302C2AF3308C
:100400002C2AEE30EB006B08CC00470803190A2AAF
:10041000EE302C2AEB302C2AEC30EB006B08CC00B1
:1004200047080319152ADE302C2ADB302C2AEA3043
:10043000EB006B08CC0047080319202ABE302C2A99
:10044000BB302C2AE830EB006B08CC0047080319BE
:100450002B2A7E302C2A7B30EB006B08D000492AF7
:100460004808EB00EC016C08003A0319382A492AC5
:100470006B08013A0319F629033A0319012A013AD4
:1004800003190C2A073A0319172A013A0319222AD9
:10049000492A3C08803A7C3E0318512A4603031D32
:1004A000532AC601C60A4C08803AEB003C08803A41
:1004B000EB02031CAB2AC601AB2A21004908EB0062
:1004C000EC016C08003A0319662AAB2A6B08003A63
:1004D0000319A729013A0319302AAB2A4B08031D37
:1004E000872A0230EB006B08CB001430AA000030E2
:1004F000AB0003302000A000F030A100210046082E
:10050000EB006B082000A2009431312480312100DF
:100510004008031DC5282A082B04031DC528CB014C
:10052000CB0AC001C00A20009814C5284B08031943
:10053000C528CB01C001200098100330A000F03086
:10054000A10021004608EB006B082000A2009431B6
:1005500031248031C5284608EB00EC016C08003AD4
:100560000319B32AC5286B08003A0319962A013AE1
:1005700003196E2AC528803132282000AC002C35A2
:100580004E3E8600013087002C08573E8400013023
:1005900085000008800AA6000130A635890BCD2A07
:1005A00020302607A7000630A8002808A0002C0845
:1005B00091312021823120002707A90029088400D9
:1005C00001308500403F803F413F813F2C08573E2E
:1005D00086000130870003300102031CF52A2C0835
:1005E000573E86000130870081010630A6002608AC
:1005F000A0002C08913120218231223E860001305A
:100600008700403F2000A700413FA8000630A90016
:100610002908A0002C08913120218231203E86003B
:1006200001308700403F2000AA00413FAB0028086E
:100630002B02031D1D2B27082A02031CA62B0630A4
:10064000A6002608A0002C08913120218231243EEA
:10065000860001308700403F2000A700413FA800EE
:100660000630A9002908A0002C08913120218231F0
:10067000223E860001308700403F2000AA00413F13
:10068000AB0028082B02031D472B27082A02031C56
:100690005A2B0630A6002608A0002C0891312021F4
:1006A000223E860001308700403F2000A400413FE9
:1006B000A50008000630A6002608A0002C089131ED
:1006C00020218231243E860001308700403F2000F7
:1006D000A700413FA8000630A9002908A0002C0867
:1006E000913120218231203E860001308700403F39
:1006F0002000AA00413FAB0028082B02031D822BDB
:1007000027082A02031C952B0630A6002608A00005
:100710002C0891312021243E860001308700403F83
:100720002000A400413FA50008000630A6002608CE
:10073000A0002C0891312021203E86000130870046
:10074000403F2000A400413FA50008000630A6005D
:100750002608A0002C08913120218231243E8600F9
:1007600001308700403F2000A700413FA80006302D
:10077000A9002908A0002C08913120218231203EB7
:10078000860001308700403F2000AA00413FAB00B7
:1007900028082B02031DCE2B27082A02031CE12B5D
:1007A0000630A6002608A0002C0891312021203E0A
:1007B000860001308700403F2000A400413FA50093
:1007C00008000630A6002608A0002C089131202140
:1007D0008231243E860001308700403F2000A70080
:1007E000413FA8000630A9002908A0002C0891313B
:1007F00020218231223E860001308700403F2000C8
:10080000AA00413FAB0028082B02031D092C270832
:100810002A02031C1C2C0630A6002608A0002C0867
:1008200091312021243E860001308700403F200086
:10083000A400413FA50008000630A6002608A0003D
:100840002C0891312021223E860001308700403F54
:100850002000A400413FA50008002000CB003C0878
:10086000D0003D08D1003E08D2003F08D300400828
:10087000D4004108D5004208D6004308D7005030C4
:10088000860000308700473FC400C41F492C013058
:100890004A2C00302000C500C6014508CE0046089D
:1008A000CF004E084F040319732CD009D109D20987
:1008B000D309D409D509D609D709D00A031D732C49
:1008C000D10A031D732CD20A031D732CD30A031DF6
:1008D000732CD40A031D732CD50A031D732CD60A5E
:1008E000031D732CD70A2100A51B7A2CFD30A60509
:1008F000FF30A7052508803A2000C400803044025C
:10090000031D852C01302100240203188D2C013099
:100910002000C9000030CA00952C210025082000C5
:10092000CA00210024082000C9002100230820005B
:10093000CD00210022082000CC004E084F04031DEA
:10094000A42C2100261DA92CFF302000CC07FF304D
:10095000CD3D1F302000D8000030D9002300C70152
:100960003F2D2000500851045204530454045504F0
:1009700056045704031DD62C4A08803AC400803020
:100980004402031DC52C013049020318D62C200057
:100990004D08803AC40080304402031DD12C013040
:1009A0004C02031C4B2D2100A61C4B2DFF302000B8
:1009B000D807FF30D93D0A30A000A101A201A30150
:1009C000A401A501A601A7015008A8005108A9008B
:1009D0005208AA005308AB005408AC005508AD00FB
:1009E0005608AE005708AF008631752684312000C6
:1009F0002108B4002008B3009231892284312000FC
:100A00003308303EC4005808A83E860001308700F5
:100A100044088100FF30C907FF30CA3DFF30CC07D2
:100A2000FF30CD3D0A30A000A101A201A301A40125
:100A3000A501A601A7015008A8005108A900520865
:100A4000AA005308AB005408AC005508AD00560886
:100A5000AE005708AF0085317E2584312000200884
:100A6000D0002108D1002208D2002308D300240896
:100A7000D4002508D5002608D6002708D700200076
:100A80005908803AC40080304402031D492D0130CA
:100A900058020318B12C20004E084F04031D532D9B
:100AA0002100261D6B2DFF302000D807FF30D93DD7
:100AB0004E084F04031D5E2D2B305F2D2D30C700D7
:100AC0000030C8004708C4005808A83E860001301E
:100AD00087004408810020005808A83EC40044084C
:100AE000B3004D08B5004C08B4004B089731B0274F
:100AF00020003408BD003308BC0008002000B2010B
:100B00002030860000308700473FB000B01FAA2D7C
:100B10002000A009A109A209A309A409A509A60901
:100B2000A709A00A031DA72DA10A031DA72DA20A2C
:100B3000031DA72DA30A031DA72DA40A031DA72D7E
:100B4000A50A031DA72DA60A031DA72DA70A20008D
:100B5000B201B20A2830860000308700473F2000EB
:100B6000B000B01FD72D2000A809A909AA09AB0918
:100B7000AC09AD09AE09AF09A80A031DD22DA90A17
:100B8000031DD22DAA0A031DD22DAB0A031DD22D9F
:100B9000AC0A031DD22DAD0A031DD22DAE0A031DD2
:100BA000D22DAF0A01302000B0003008B206333039
:100BB00086000030870008302000B00000301E00A2
:100BC000B00BDF2D20082104220423042404250473
:100BD000260427040319422EB101B10AA71BFD2DDB
:100BE000A035A10DA20DA30DA40DA50DA60DA70D59
:100BF0000130B0003008B107EE2DB335B40DB50D9E
:100C0000B60DB70DB80DB90DBA0D27082F02031D8B
:100C1000232E26082E02031D232E25082D02031D38
:100C2000232E24082C02031D232E23082B02031D30
:100C3000232E22082A02031D232E21082902031D28
:100C4000232E20082802031C362E2008A802210883
:100C5000A93B2208AA3B2308AB3B2408AC3B250850
:100C6000AD3B2608AE3B2708AF3B3314A736A60C96
:100C7000A50CA40CA30CA20CA10CA00C0130B10279
:100C8000031DFD2D32080319632EB309B409B509FC
:100C9000B609B709B809B909BA09B30A031D632E21
:100CA000B40A031D632EB50A031D632EB60A031D85
:100CB000632EB70A031D632EB80A031D632EB90AFB
:100CC000031D632EBA0A20003308A0003408A100D7
:100CD0003508A2003608A3003708A4003808A5008C
:100CE0003908A6003A08A70008002000B201283001
:100CF000860000308700473FB000B01FA12E2000C3
:100D0000A809A909AA09AB09AC09AD09AE09AF093F
:100D1000A80A031D9E2EA90A031D9E2EAA0A031DC2
:100D20009E2EAB0A031D9E2EAC0A031D9E2EAD0AFD
:100D3000031D9E2EAE0A031D9E2EAF0A2000B20197
:100D4000B20A2030860000308700473F2000B00004
:100D5000B01FC92E2000A009A109A209A309A40956
:100D6000A509A609A709A00A031DC92EA10A031DEA
:100D7000C92EA20A031DC92EA30A031DC92EA40A47
:100D8000031DC92EA50A031DC92EA60A031DC92EBF
:100D9000A70A200020082104220423042404250497
:100DA000260427040319212FB101B10AA71BE52E40
:100DB000A035A10DA20DA30DA40DA50DA60DA70D87
:100DC0000130B0003008B107D62E27082F02031DCE
:100DD000032F26082E02031D032F25082D02031DB5
:100DE000032F24082C02031D032F23082B02031DAD
:100DF000032F22082A02031D032F21082902031DA5
:100E0000032F20082802031C152F2008A802210800
:100E1000A93B2208AA3B2308AB3B2408AC3B25088E
:100E2000AD3B2608AE3B2708AF3BA736A60CA50C6A
:100E3000A40CA30CA20CA10CA00C0130B102031D48
:100E4000E52E32080319422FA809A909AA09AB09FE
:100E5000AC09AD09AE09AF09A80A031D422FA90AC2
:100E6000031D422FAA0A031D422FAB0A031D422F66
:100E7000AC0A031D422FAD0A031D422FAE0A031D0B
:100E8000422FAF0A20002808A0002908A1002A0844
:100E9000A2002B08A3002C08A4002D08A5002E08F2
:100EA000A6002F08A7000800F90100308B1B0130B5
:100EB000F80021005F0891316D218731003A031954
:100EC0006F2F0130F60076082100DF0703305F0640
:100ED000031D592FDF01DE01F901F90A772F2100E7
:100EE0005F08913158218731003A0319612F790841
:100EF000031D08000930F6007608F00021005F08A5
:100F000091310F218731C83EF7007708FA007A083F
:100F1000903182208731003A03199E2F7A0886008B
:100F2000013087000130433F21009D007A08860090
:100F3000013087000130423F9C00B92F7A08903180
:100F400025208731003A0319B42F7A088600013032
:100F500087000130423F21009C007A088600013062
:100F600087000130433FB82F603021009C00603083
:100F70009D005B08F60076089C077A088600013021
:100F800087000130413F9E007A08043E8600013010
:100F90008700013622008D007A0886000130870024
:100FA0000130453F21009B009317DE01DE0AF0016E
:100FB000F00A5F0895318F2587318B1321001314B8
:100FC0007A08043E8600013087000108F600F70128
:100FD0000930F635F70D890BE92F76089000770870
:100FE0009100780C031C8B1303188B17DD0108008C
:100FF0002F0096019701980199019A019B01080021
:101000002000A60003302602031818280930A40087
:101010002408A000260891312021D03E860001300E
:101020008700010C2000A500A50C250C0139080043
:10103000003008002000B4003408B2000330B2359C
:10104000FF3E031D1F283235203EB3003308B50094
:10105000350A86000230870001089231002288316B
:10106000003A031908002000350A86000230870084
:101070000108883100208831003A03190800200057
:1010800035089031B5208831200035088A31CA22D0
:10109000883120003508023E860002308700033088
:1010A0000102031C5B283508860002308700010816
:1010B0009631AA26883120003508B2003208AD00EA
:1010C0003508023E86000230870001355A3E860010
:1010D00001308700413F8A00403F0A008831080004
:1010E0002E008F1E08009431102488312000A200A9
:1010F00022082100C100AA304106031D9228C30125
:1011000041082000A200210043083C3E8600013037
:1011100087002000220881000130A200220821005F
:10112000C307080041082000A200210043083C3EFC
:101130008600013087002000220881000130A200D3
:1011400022082100C30709304302031C08002200C3
:101150003D082000A20022082100BF0022003E0816
:101160002000A20022082100BD0022003F0820002C
:10117000A20022082100BC00220040082000A2009A
:1011800022082100BE00C301C101C201C20A080039
:101190002000B9000930B7003708A00039089131A4
:1011A00020218831C83E2000B8003808BA003A082B
:1011B0009031D2208831003A03191E2920003A08C4
:1011C000063E86000130870039354E3E84000130EE
:1011D0008500403F0002B3000131413F003BB400B5
:1011E00092318922883120003A08043E860001307D
:1011F00087000108B700B801B735B80DB735B80D8D
:1012000034083802031D06293308370203180D2954
:101210003A0890312E20883111293A089031372030
:10122000883120003A0894319D2488312000390803
:10123000B7003708A0009F31FC27080020003A08BB
:1012400090313720080020002D080A3E8600023029
:101250008700403FAE00413FAF0003302F02E8302F
:1012600003192E02031C48292D088600023087002E
:1012700001089631AA26893120002D088600023007
:1012800087000108AE002E08A0009F31FB27080050
:101290002D08093E8600023087000108803AAE0022
:1012A0002D080E3E8600023087002D080E3E840079
:1012B0000230850000360102803AAE0203180800B1
:1012C0002D08023E8600023087008101810A2D0828
:1012D0000A3E8600023087000030C03FC13F2D0823
:1012E0000C3E860002308700FF30C03FFB30C13F1C
:1012F0002D088600023087000108AE002E08A000ED
:101300009F31FB27080020002D080A3E860002308E
:101310008700403FAE00413FAF0000302F02093050
:1013200003192E02031899292D08963112268931A6
:101330009D292D088B31DE23893120002D080A3E9E
:101340008600023087000130810741310318810A8D
:101350002D080A3E860002308700403FAE00413F24
:10136000AF0000302F02103003192E02031C0800BA
:101370002D08053E860002308700403FAE00413F09
:10138000AF00423FB000433FB1000430B136B00C73
:10139000AF0CAE0C890BC6292D08033E8600023027
:1013A00087002E08C03F2F08C13F2D08023E86004F
:1013B000023087008101810A2D080A3E8600023032
:1013C00087000030C03FC13F0800342A0030A00031
:1013D000F030A100210049082000A4002408A20048
:1013E0009431312408000130A000F030A100210028
:1013F00048082000A4002408A200943131240800E9
:101400000230A000F030A100210047082000A40015
:101410002408A2009431312408000330A000F030E9
:10142000A100210046082000A4002408A200943155
:10143000312408000430A000F030A100210045084C
:101440002000A4002408A2009431312408000530B3
:10145000A000F030A100210044082000A4002408CE
:10146000A20094313124080021004A082000A40081
:10147000A5012508003A03193E2A522A2408003AF9
:101480000319E629013A0319F329033A0319002A3B
:10149000013A03190D2A073A03191A2A013A0319C6
:1014A000272A522A080021004F0803196F2A00300A
:1014B000933108238A31003A031D6F2A013093319A
:1014C00008238A31003A031D6F2A02309331082322
:1014D0008A31003A031D6F2A01302100CF0221001A
:1014E0002E082F040319782A0130AE020030AF3BDA
:1014F0002C082D040319C32AFF30200097009812EE
:10150000181298111811A12A2000981621005308CA
:10151000922A2000181621005208922A20009815BD
:1015200021005108613E840098300318013E850077
:1015300000089E2A2000181521005008200097005E
:10154000B82A21005408F200F3017308003A031985
:10155000AA2AB82A7208003A0319842A033A0319FE
:10156000892A053A03198E2A0F3A03199A2AB82AAA
:101570000130F20072082100D4070C305402031C21
:101580000800D40108002000970198121812981141
:10159000181108002000AA002A08053E8600023023
:1015A0008700403FA000413FA100423FA200433FCF
:1015B000A3000430A336A20CA10CA00C890BDA2ADC
:1015C0002A08033E860002308700403FA400413FC6
:1015D000A5002408A6002508A700A801A901200845
:1015E000A6022108A73B2208A83B2308A93B2908FB
:1015F000AE002808AD002708AC002608AB002B0879
:10160000A0002C08A1002D08A2002E08A3002A0883
:101610000F3E860002308700010A122BA337A20C6E
:10162000A10CA00C890B0E2B2308AE002208AD00E4
:101630002108AC002008AB00AE1B332B2E08031D85
:101640002B2B2D08031D2B2B2C08031D2B2B80303F
:101650002B02031C332B0030AE000030AD000030F5
:10166000AC007F30AB00AE1F472B80302B02FF3029
:101670002C3BFF302D3BFF302E3B0318472BFF3018
:10168000AE00FF30AD00FF30AC008030AB002B0867
:10169000A0002A08093E8600023087002008810049
:1016A0000800F90079088600013087000108F4007D
:1016B0007408F8007908903125208B31003A031D19
:1016C0008C2B7908043E8600013087000108F40065
:1016D000F5010930F435F50D890B6A2B2200150848
:1016E0007502031D752B140874020318882B013032
:1016F000F4007908053E86000130870074088107F0
:101700001F300102031C080079089231D42208001E
:1017100079089231D42208007908043E860001300D
:1017200087000108F400F501F435F50D78354E3EDB
:10173000860001308700403FF600413FF70022005D
:1017400014087602F0001508773BF100923142222E
:101750008B3175087102031DAF2B740870020318DA
:10176000BE2B6030F4007908023E8600013087000D
:101770007408810079089031A72008007908033E99
:101780008600013087005E300102031CD42B6030DC
:10179000F4007908023E8600013087007408810059
:1017A00079089031A72008000230F4007908033E40
:1017B0008600013087007408810708002000A60019
:1017C0008B1F292C8B132608053E860002308700CC
:1017D000403FA000413FA100423FA200433FA30081
:1017E0000430A336A20CA10CA00C890BF12B260807
:1017F000053E860002308700200881024131210821
:10180000813B41312208813B41312308813B7D31BD
:101810002608033E860002308700403FA000413F7B
:10182000A1002008A2002108A300A401A501260808
:10183000053E8600023087002208810741312308D7
:10184000813D41312408813D41312508813D8B177F
:1018500008002608053E860002308700403FA000B1
:10186000413FA100423FA200433FA3000430A33602
:10187000A20CA10CA00C890B372C2608053E860073
:10188000023087002008810241312108813B41312B
:101890002208813B41312308813B7D312608033EEC
:1018A000860002308700403FA000413FA100200891
:1018B000A2002108A300A401A5012608053E860078
:1018C000023087002208810741312308813D4131E0
:1018D0002408813D41312508813D080020002D0864
:1018E000093E8600023087000108803AAE002D08CC
:1018F0000E3E8600023087000103FF3A803AAE02B6
:101900000318AD2C2D080A3E8600023087000130F6
:10191000810741310318810A2D080A3E86000230F2
:101920008700403FAE00413FAF0000302F02413002
:1019300003192E02031CEC2C2D080A3E86000230EF
:1019400087000030C03FC13F2D088600023087006D
:1019500001089631AA268C31EC2C2D08093E860010
:10196000023087000108AE00AF01AE1BAF032D08A7
:101970000E3E8600023087002F08803A803C031D0F
:10198000C32C2E0801020318E32C02302000AE0005
:101990002D08023E8600023087002E0881002D08A7
:1019A0000A3E8600023087000030C03FC13F2D084C
:1019B0008600023087000108AE002E08A0009F318B
:1019C000FB278C31EC2C20002D080A3E86000230CB
:1019D00087000030C03FC13F20002D080C3E86002C
:1019E000023087000130810741310318810A2D0838
:1019F0000C3E8600023087001600403AAE0016000A
:101A0000AE04031D08002D080C3E8600023087003E
:101A10000030C03FC13F2D088B31DE23080000306D
:101A20002000A000F030A1009031E1208D31FF3A7C
:101A3000031D1E2D2100C901C90A2B2D00302000D5
:101A4000A000F030A1009031E1208D312000A200F3
:101A500022082100C90001302000A000F030A100C0
:101A60009031E1208D31FF3A031D382D0330402D98
:101A700001302000A000F030A1009031E1208D3134
:101A80002000A20022082100C80002302000A0008F
:101A9000F030A1009031E1208D31FF3A031D532D2C
:101AA0002100C701602D02302000A000F030A1000D
:101AB0009031E1208D312000A20022082100C700D2
:101AC00003302000A000F030A1009031E1208D31E2
:101AD000FF3A031D6E2D2100C6017B2D033020002F
:101AE000A000F030A1009031E1208D312000A20053
:101AF00022082100C60004302000A000F030A10020
:101B00009031E1208D31FF3A031D882D3C30902D1E
:101B100004302000A000F030A1009031E1208D3190
:101B20002000A20022082100C50005302000A000EE
:101B3000F030A1009031E1208D31FF3A031DA32D3B
:101B40002100C401080005302000A000F030A100F1
:101B50009031E1202000A20022082100C4000800EA
:101B60002000A90100308B1B0130A80021005F0874
:101B7000923100228D31003A0319CE2D0130200020
:101B8000A60026082100DF0703305F06031DB62DDF
:101B9000DF01DE012000A901A90AD62D21005F087E
:101BA00092312C228D31003A0319BE2D20002908D4
:101BB000031D08000930A6002608A00021005F08C8
:101BC000913120218D31C83E2000A7002708AA00AE
:101BD0002A0890319A208D31003A0319022E2000F4
:101BE0002A088600013087000130433F21009D0014
:101BF00020002A088600013087000130423F210082
:101C00009C00212E20002A0890316D208D31003A51
:101C100003191C2E20002A0886000130870001309D
:101C2000423F21009C0020002A08860001308700E6
:101C30000130433F2100202E603021009C006030A5
:101C40009D005B082000A600260821009C072000BC
:101C50002A088600013087000130413F21009E00A4
:101C600020002A08043E8600013087000136220049
:101C70008D0020002A088600013087000130453F92
:101C800021009B009317DE01DE0A2000A001A00ABC
:101C900021005F08953114258D318B132100131419
:101CA00020002A08043E8600013087000108A600B3
:101CB000A7010930A635A70D890B5A2E2608210049
:101CC000900020002708210091002000280C031C10
:101CD0008B1303188B172100DD0108002000BE01C3
:101CE000BF01C10121005C082000B7000130B735F9
:101CF000890B772E20303707B8000630B900390835
:101D0000A0004108913120218E3120003807BA000F
:101D10003A0886000130870041354E3E840001308C
:101D20008500403F0002B3000131413F003BB40059
:101D3000923189228E3120003408BD003308BC0066
:101D40003D083F02031DA62E3C083E020318AC2EA0
:101D50003D08BF003C08BE000130B7003708C1078E
:101D600003304102031C722E00303F02653003191C
:101D70003E02031C182F0130B70021005C08543EBE
:101D800086000130870020003708810706300102F5
:101D9000031C080021005C08603E860001308700BB
:101DA00001082000B7003708C00040080319DB2EE7
:101DB0000130C002DF2E1E30B7003708C000BB0163
:101DC000BB0AC201420821005C060319F12E200063
:101DD0004208603E86000130870001084006031972
:101DE000BB0101302000B7003708C20703304202B0
:101DF000031CE22E3B080319D52E4008B700210032
:101E00005C08603E860001308700200037088100B2
:101E1000C2014208543E8600013087008101013032
:101E2000B7003708C2070330420203180800092F21
:101E300000303F02323003193E020318080021002F
:101E40005C08543E86000130870001080319080031
:101E50005C08543E86000130870001308102080092
:101E60002000E9005A0886008701403FDC00413F1E
:101E7000DD005C0884005D0885001200253A031D22
:101E8000DD2F5A0886008701013081074131031890
:101E9000810A2100A201A301A601A701FF30A4002D
:101EA000FF30A50020005A0886008701403FDC0073
:101EB000413FDD005C0884005D0885001200643A43
:101EC0000319712F5A0886008701403FDC00413F0B
:101ED000DD005C0884005D0885001200693A031D7E
:101EE000AB2F5A0886008701013081074131031862
:101EF000810A5B08860087010108840085010230A1
:101F00008107003FDC00013FDD005C08E1005D0867
:101F1000E200890D893B8909E300E400E500E60061
:101F2000E700E8006108BC006208BD006308BE006D
:101F30006408BF006508C0006608C1006708C200E9
:101F40006808C300690884312D2420003D08DB00A7
:101F50003C08DA0008005A0886008701403FDC0090
:101F6000413FDD005C0884005D0885001200253AD1
:101F7000031DD22F5A0886008701013081074131A5
:101F80000318810A2530A3000030A4006908DC0092
:101F90005C08A5009631E12601302000DA0000300F
:101FA000DB0008005A0886008701013081074131B3
:101FB0000318810ADA01DB0108005A08860087014C
:101FC000403FDC00413FDD005C0884005D08850087
:101FD0000008DE00DF015E08A3005F08A4006908B6
:101FE000E0006008A5009631E1268F3120005A08F4
:101FF000860087010130810741310318810ACC2F07
:102000009231592208009231A22208002E008D1030
:102010009631732608002000A2002208953166251B
:102020000800640080010131890B12280034FE0091
:1020300012001E00FE0B18280034F0007008083E45
:1020400086000130870081140800F0007008083E07
:10205000860001308700010E013908002000A00031
:102060002008083E86000130870001150800200086
:10207000A0002008083E86000130870001110800FA
:102080002000A0002008083E860001308700811053
:102090000800200021082100B900200020082100AC
:1020A000B8000800200021082100BB002000200803
:1020B0002100BA000800200021082100B5002000FE
:1020C00020082100B4000800200021082100B100F0
:1020D000200020082100B00008002000A0002008F7
:1020E000083E860001308700010E013908001030DB
:1020F00031008D008F01910103309300920110187F
:1021000008007F28F1007108083E86000130870032
:10211000010CF000F00C700C013908009331F02331
:1021200090319331D02390319131C1219031903150
:10213000032008002000A1002108083E860001308D
:102140008700010CA000A00C200C01390800F00051
:102150007008083E86000130870081157008083E2F
:10216000860001308700011208002000AB008B1FA1
:10217000BF288B132B08973160278B1708002B087B
:1021800097316027080024000E1DCD280E1071081D
:102190008D0070088C000E14080071088D00700806
:1021A0008C0008002000A00020080319DF28200868
:1021B000083E860001308700010801390800003020
:1021C00008002000210830009B002000200830007B
:1021D0009A001E171E140000000030001C080800A2
:1021E000833409346E340C342334093400340F340E
:1021F0001E34FB341F34FB341F34FC341F342000E6
:10220000B701370888311A20903101302000B6001C
:102210003608B70703303702031808000129F20017
:10222000F301721C17297008F1007108F3070310FD
:10223000F00D0310F20C7208031D11297308080039
:102240002000A300A201231C29292008A1002108A5
:10225000A2070310A00D0310A30C2308031D2329BC
:10226000220808002000A5000330250203180800FA
:102270000930A4002408A000250891312021D03E77
:10228000860001308700811108002000A50003307E
:102290002502031808000930A4002408A00025081E
:1022A00091312021D03E86000130870001140800C2
:1022B000F5000330750203186B290930F400740827
:1022C000F000750891310F21D03E86000130870063
:1022D00001080139080000300800F50003307502DC
:1022E000031880290930F4007408F0007508913152
:1022F0000F21D03E860001308700010C0139080013
:10230000003008002E008C122100370820009D00AC
:102310002100360820009C002100340835040319F0
:10232000080035088A0034080A00913108002E00A0
:10233000101021003308F1003208F0009031C32062
:1023400091312100300831040319080031088A0056
:1023500030080A00913108008E316E26913120003C
:10236000C40144088831C820913101302000C300E5
:102370004308C40703304402031CB12992311622DA
:102380000800C8302000A1002108A200DA30A10016
:1023900022082102031C08002208903140209131BC
:1023A00009302000A1002108A207C6298731F8279B
:1023B000913194315324913190317720913193317F
:1023C000B223913193315B2391319531E5259131E0
:1023D00090318E200800E6302000EF006F082100C9
:1023E000EA0065082000EB00210064082000EA00F4
:1023F000EA30EF006F08EC0000309631412608000B
:102400002000A500033025020318142A0930A40077
:102410002408A000250891312021D03E86000130FB
:102420008700010C0139080000300800013020004D
:10243000A00020082100DC0703305C020318DC0147
:102440005C08603E86000130870001082000A00083
:1024500020082100DB0008002000A5000330250231
:102460000318402A0930A4002408A000250891314F
:102470002021D03E86000130870001080139080084
:10248000003008007108803AF20080307202031DAB
:102490004B2A01307002031808007009F20071091C
:1024A000F300F20A0319F30A7208F0007308F1004E
:1024B00008002000A4012408A3000330A335FF3E38
:1024C000031D5E2A2335203E9431EC2492310130E5
:1024D0002000A3002308A4070330240203180800E7
:1024E0005B2A2000A7002708913145219231200066
:1024F000270891313221923109302000A6002608A8
:10250000A0002708913120219231C83E903140200F
:10251000080020003408803AB50080303502031DE1
:10252000932A013033020318080020003309B50054
:102530003409B600B50A0319B60A3508B3003608DF
:10254000B40008000730210098009A019B01220086
:102550008E018F0190019101920193014130210080
:1025600094008B3095000F309600C43093002E00FD
:102570008D10971408002000A4002408A20022084F
:10258000A300240886000130870001080319CD2A22
:102590000130A2002208A407C12A23082402A000B7
:1025A000A101A01BA1030800F1007108083E8600EC
:1025B0000130870001160230F0007108033E8600EA
:1025C00001308700700881006030F0007108023E21
:1025D0008600013087007008810008002000A700F5
:1025E000033027020318052B0930A6002608A00097
:1025F000270891312021CE3E860001308700403FE0
:102600002000A400413FA5000800A401A501080086
:10261000F100033071020318212B7108F000033020
:10262000F035FF3E031D102B7035223E8600023030
:10263000870002300106031D1F2B01300800003007
:1026400008000030080022009D1C282B1D121D16BA
:102650001908F00021005708A03E860001308700CD
:10266000700881000130F0007008D7070830570269
:102670000318D7010130F0007008D50708002000CA
:10268000A100033021020318592B2108A0000330B8
:10269000A035FF3E031D482B2035223E8600023028
:1026A000870002300106031D572B0130080000305F
:1026B000080000300800463020009F000B309D00CD
:1026C000DC309C001D082100B70020001C08210000
:1026D000B6002E008C129616F9302000A0001F3094
:1026E000A10090315B20903020009E000800210066
:1026F000E001E00A9431C4249331003A031D822B97
:10270000003008009031FF20933180310220933156
:102710002000C70047082100E0009131C12193311A
:1027200090310020013008000830210058020318C1
:10273000AF2B5908463E8600013087000108220071
:102740009A000130F00070082100D90708305902C2
:102750000318D9010130F0007008D80708002E00D6
:102760001912080024008F01900101309100F0300F
:102770008D0060308C000D082100B30024000C088F
:102780002100B2002E0010101A14FA302000A00010
:102790001F30A10090316420013024008E00080019
:1027A00020302000A0000230A1003130A20098307B
:1027B000A3003030A4000030A50095313D259331B1
:1027C0002000AD012D089631AA269331013020005A
:1027D000AC002C08AD0703302D0203180800E22BD3
:1027E000C8302000A0000130A1000030A2009830C5
:1027F000A3001B30A4000030A50095313D25933186
:102800002000AD012D08923171229331013020005A
:10281000AC002C08AD0703302D0203180800022C71
:10282000210055080319102C5608A03E86000130DF
:10283000870001082000A0002008A1000130A000AE
:1028400020082100D607083056020318D6012E00B2
:10285000991201302100D5022E009916200021087E
:10286000080000308B1B01302000A300210830003D
:102870009B002000200830009A0020002208300031
:102880009C001E171E158B1355309F00AA309F0009
:102890009E149E18492C1E112000230C031C8B1320
:1028A00003188B1708002000960197019801F1305A
:1028B00091009201803093007F303E00CE00FF30C7
:1028C000C300B130B800E501C401B901CF01BA01BC
:1028D000C501D001FF30BB00FF30C600FF30D10082
:1028E00017303D00CB0010303E00A600080020004D
:1028F000B200B001B10130083207AC002C088600EC
:10290000013087000108AD002D08AF002F08031922
:1029100008002F08AC00AD012C08A3002D08A4006E
:102920002B08AE002E08A5009631E1269431013027
:102930002000B0070030B13D7B2C2000AF002F08F5
:1029400086000130870001088231BD2294312000C9
:102950002508AE002408AD008B1FBA2C8B132F085E
:10296000063E8600013087002D08C03F2E08C13F7B
:102970008B1708002F08063E8600013087002D08BF
:10298000C03F2E08C13F08002000C6014608923112
:1029900000229431003A031DDF2C200046089231BA
:1029A0002C229431003A0319DF2C9F31FD279431FA
:1029B000003A031DDD2C8D31B025003008000130B8
:1029C0002000C5004508C60703304602031CC62C7C
:1029D0009131AC21013008002000A2002208023E03
:1029E00086000230870002300106031D080022081D
:1029F0000A3E86000230870001308107413103180A
:102A0000810A22080A3E860002308700160001046F
:102A1000031D080022080A3E860002308700FF30AE
:102A2000C03FFF30C13F08002000A300292D200C2B
:102A3000031C9110031891140800200C031C1111A1
:102A4000031811150800200C031C9111031891158F
:102A500008002308A100A2012208003A0319312D21
:102A60003C2D2108003A0319172D013A03191D2D99
:102A7000033A0319232D3C2D080020002308AB0046
:102A80002208AA002108A9002008A8000130A402F9
:102A90000030A53B240A0319250A031908002A0857
:102AA00084002B0885000008A6002608A700013036
:102AB000AA070030AB3D28088600290887002708B0
:102AC00081000130A8070030A93D462D2000A1005B
:102AD000210058080319682D2E00191A742D2000A2
:102AE000210822009A008C2D191220002108A00034
:102AF00021005A08463E8600013087002000200849
:102B000081000130A00020082100DA0708305A02B5
:102B10000318DA010130D8022E0019160800F3005C
:102B2000A62D700C2000031C9110031891140800AE
:102B3000700C2000031C1111031811150800700CF3
:102B40002000031C91110318911508007308F1006F
:102B5000F2017208003A0319AE2DB92D7108003A3E
:102B60000319912D013A0319982D033A03199F2D4A
:102B7000B92D0800AA302000A20022082200B200CD
:102B8000210040082000A20022082200B300B40166
:102B9000B501B601B701B801B901BA01BB01210005
:102BA000C3010A304302031808004308323E86007E
:102BB00001308700010895316625953101302000EC
:102BC000A20022082100C307D12D2E009912233024
:102BD0002000A0001330A1009031492095312E0033
:102BE000191294302000A0001330A100903152201F
:102BF000083022009F0090309D0024309E00A030BD
:102C00009B0001309C002100DA01D901083020002E
:102C1000A20022082100D800D701D601D5012E003C
:102C2000991608002000AC002C0A860002308700AC
:102C300001089231EE22963120002408A8002508D0
:102C4000A900AA01AB012C08053E860002308700CE
:102C50002808C03F2908C13F2A08C23F2B08C33FAC
:102C60002C08053E86000230870004308135413152
:102C7000810D4131810D4131810D7D31890B362E20
:102C800008002100E10020006B082100E300200083
:102C90006A082100E200A001A10162088400630823
:102CA0008500120003196B2EE2302000ED006D0844
:102CB000DA006C08EE006E08DB00210061088F313D
:102CC0003027963120005A082100A00720005B0819
:102CD0002100A13D4D2E21082000EB0021002008FD
:102CE0002000EA000800F00121005F0895318F25DF
:102CF000963121005D0803197F2E9313A72E93139D
:102D00000930FB007B08F0005F0891310F219631FC
:102D1000C83EFC007C08FD007D0890318220963181
:102D2000003A031D982E7D088B31512396319C2E3D
:102D30007D0890311D20963121005F354E3E860082
:102D40000130870022001408C03F1508C13F8731B9
:102D5000542708002000A8002808A6000330A63544
:102D6000FF3E031DAF2E2635203EA7002708A900F1
:102D70002908023E86000230870081012908053EAD
:102D80008600023087000030C03F0030C13FC23FA4
:102D9000C33F29080A3E8600023087000030C03F4A
:102DA000C13F29080C3E8600023087000030C03F3A
:102DB000C13F290A86000230870001089131322183
:102DC000080020002508031D2508031DEB2E2308FD
:102DD00090310B2008002508033E8600870116006D
:102DE000010403190E2F2508033E86008701403F8A
:102DF000A600413FA700250A86008701403FA800A2
:102E0000413FA9002908803AAA002708803A2A02EF
:102E1000031D0C2F26082802031808002000250A8D
:102E2000860087010130810741310318810A0800BB
:102E3000033021004E020318292F0230933108235A
:102E40009731003A0319292F0130F200720821004E
:102E5000CE070230933108239731003A031D322FF9
:102E60002100CE0121002C082D0403193B2F013035
:102E7000AC020030AD3B4D080319402F0130CD02AC
:102E8000280829040319482F0130A8020030A93B63
:102E90002A082B040319080002304B06031D080002
:102EA0000130AA020030AB3B03102000981C031431
:102EB000031C5D2F200098140800200098100800C3
:102EC0002000AA002A08023E86000230870001087E
:102ED00003199E2F2A08033E860002308700403FD8
:102EE000A800413FA900A936A80CA936A80C2A08B9
:102EF000033E8600023087002808810241312908FC
:102F0000813B7F312A0A8600023087000108923116
:102F1000EE2220002408A8002508A900A936A80C44
:102F2000A936A80C2A08033E86000230870028082C
:102F3000810741312908813D7F3108002A0A860036
:102F40000230870001089231EE2220002A08033E59
:102F50008600023087002408C03F2508C13F0800D2
:102F60002000BB002100261CBE2F20003B08B6001D
:102F70003608AB0033089431772497312000B51B15
:102F8000C62F3508BA003408B900C82FB901BA01F4
:102F9000B701B8013808803AB6003A08803A3602DC
:102FA000031DD42F390837020318E82F20302000E2
:102FB000A3000030A4003B08B6003608A5009631F7
:102FC000E126973101302000B7070030B83DCA2F05
:102FD00021002618F42F20003B08B6003608AB006D
:102FE0003308943177249731200033089231BB2283
:102FF000200039082007B3003A08213DB40008003A
:103000000034013414340A342034003400340034E1
:1030100000340134023414340A34203400340034CF
:10302000003400340234033414340A3420340034BD
:103030000034003400340A340D34753438345F34CD
:103040004D3465346D346F347234793449346E34B0
:1030500064346534783420343D3420342534643489
:1030600000340034023400340034003400340034BE
:10307000003400340034003400340034003464344C
:10308000013401340134003400340034003400349D
:10309000003400340034003400340034003464342C
:1030A000013402340034003400340034003400347D
:1030B000003400340034003400340034003464340C
:1030C0000134C034F934A434B034993492348234A5
:1030D000F834803490340034FF34BF348634003404
:0A30E00000340034003400340034E2
:103FF200080008000800080021005E0808001434C8
:0E40020000341E34003404340034003408341A
:020000040001F9
:0A000E009C3FFF379F3FFF3FFF3F7D
:00000001FF
