:020000040000FA
:04000000803118280B
:100008007E1480310B1F09280A2816284E011A1C55
:100018000E280F281628101C122813281628853198
:10002800282580317E10090080311A28F801F9014D
:10003800FA01FB012030840000308500233085312F
:100048007D2580317E10400180312A2885313F2569
:1000580080318B170B170830F2000430F30085311C
:1000680083258031FB014001BE01BF01BC01BD01F8
:10007800BA01BB01B801B901B601B701B401B501B4
:10008800FA01F801F901B201B3010030AF00003004
:10009800AE000030AD000030AC000030AB000030E6
:1000A800AA000030A9000030A8000030A3000030EA
:1000B800A2000030A1000030A0000030A7000030EE
:1000C800A6000030A5000030A400B001B101C101B4
:1000D800DA01DA0A013084317D2480317608400162
:1000E800A0077708A13D0030A23DA33D023084312E
:1000F8007D24803176084001A4077708A53D0030AB
:10010800A63DA73D0130B2070030B33D04303306A9
:100118003204031D902891283F292008CB0021088C
:10012800CC002208CD002308CE000A30CF00CE37FD
:10013800CD0CCC0CCB0CCF0B9B284E08A3004D0844
:10014800A2004C08A1004B08A000A31BBA28230852
:10015800031DB9282208031DB9282108031DB92841
:10016800CC3020020318B928BA28BD28FA01FA0AA7
:100178001229A31BCC282308031DCD282208031D00
:10018800CD28E23020020330213B031CCC28CD28A7
:10019800CE28BA28FA012108F3002008F20082319B
:1001A800F322803140012308C6002208C500210837
:1001B800C4002008C3002F08CA002E08C9002D0853
:1001C800C8002C08C7008431492480314001460802
:1001D800A3004508A2004408A1004308A000200885
:1001E8002802CB002108293BCC0022082A3BCD005D
:1001F80023082B3BCE000A30CE36CD0CCC0CCB0CD2
:10020800890B00294E08A3004D08A2004C08A10044
:100218004B08A0002108B1002008B0002408CB003A
:100228002508CC002608CD002708CE000A30CE3697
:10023800CD0CCC0CCB0C890B1B294E08A7004D0804
:10024800A6004C08A5004B08A4002508F9002408BE
:10025800F800B201B3010030A3000030A200003062
:10026800A1000030A0000030A7000030A600003038
:10027800A5000030A40003307902E33003197802A6
:10028800031C472948294A29C101C32A0330790296
:10029800823003197802031C522953296A297A08E3
:1002A800031D5729582965290230CB004B08C10086
:1002B8001930B4000030B5003C30B6000030B7004B
:1002C800C32A0330CB004B08C100C32A023079028D
:1002D800FB3003197802031C7229732985297A08CF
:1002E800031D7729782965290230CB004B08C10006
:1002F8001430B4000030B5003830B6000030B70014
:10030800C32A02307902673003197802031C8D2949
:100318008E29A0297A08031D92299329652902307C
:10032800CB004B08C1000C30B4000030B5003030B1
:10033800B6000030B700C32A01307902CA30031969
:100348007802031CA829A929B9297A08031DAD290F
:10035800AE2965290230CB004B08C100B401B501B4
:100368002530B6000030B700C32A0130790230309A
:1003780003197802031CC129C229D4297A08031D4C
:10038800C629C72965290230CB004B08C100FA30BD
:10039800B400FF30B5002030B6000030B700C32AE3
:1003A800003079029C3003197802031CDC29DD290E
:1003B800EF297A08031DE129E22965290230CB00DB
:1003C8004B08C100F130B400FF30B5001830B6005A
:1003D8000030B700C32A003079022C3003197802A4
:1003E800031CF729F8290A2A7A08031DFC29FD2984
:1003F80065290230CB004B08C100E730B400FF305C
:10040800B5000F30B6000030B700C32AC101C10AD9
:10041800C32A7B03031D112A122A1A2A0330CB0090
:100428004B08FB001430BC000030BD0003307B06D5
:10043800031D1F2A202AE02A3C083D04031D252A03
:10044800262AE02AFB01E02A7B08031D2C2A2D2AF4
:10045800352A0230CB004B08FB001430BE000030B8
:10046800BF0002307B06031D3A2A3B2AE02A3E08D9
:100478003F04031D402A412AE02AFB01FB0AE02A27
:100488007B08031D482A492A602A3108803ACB0094
:100498003708803A4B02031D532A36083002031CE2
:1004A800562A572A602A02304001CB004B08FB002D
:1004B8001430BE000030BF0002307B06031D652AE1
:1004C800662A6F2A40013E083F04031D6C2A6D2AE4
:1004D8006F2AFB01FB0A7B03031D732A742A8C2AEB
:1004E80040013508803ACB003108803A4B02031DA1
:1004F8007F2A30083402031C822A832A8C2A03307C
:100508004001CB004B08FB001430BC000030BD009C
:1005180003307B06031D912A922AE02A40013C08F9
:100528003D04031D982A992AE02A262A3A083B0402
:10053800031D9F2AA02AD92AFB010A30B8000030DF
:10054800B900E02A38083904031DAB2AAC2AD92A95
:10055800FB01FB0A0A30BA000030BB00E02A7B0826
:10056800CB00CC014C08003A0319BB2A412A4B089E
:10057800003A0319A62A013A03199A2A412A41087E
:10058800CB00CC014C08003A0319CB2AE02A4B08CF
:10059800003A03190D2A013A0319282A033A0319C4
:1005A800442A013A0319B32AE02AE02A18119913B8
:1005B8006E28181599176E287B084001CB00CC01CE
:1005C8004C08003A0319E92A6E284B08003A031927
:1005D800DA2A013A0319DD2A6E28803118287208B0
:1005E80073040319F82AF92A072C03307302C83058
:1005F80003197202031C012B022B142B003040013B
:10060800AF000030AE000F30AD00E030AC0000307D
:10061800AB003730AA007630A9000030A800072CBC
:1006280003307302A13003197202031C1C2B1D2B0B
:100638002F2B00304001AF000030AE000930AD0074
:10064800C730AC000030AB002030AA005F30A900F2
:100658003330A800072C0330730264300319720288
:10066800031C372B382B4A2B00304001AF000030D9
:10067800AE000630AD008830AC000030AB0014305E
:10068800AA009B30A9003330A800072C033073025E
:10069800113003197202031C522B532B652B0030A7
:1006A8004001AF000030AE000430AD00CB30AC00EC
:1006B8000030AB000E30AA00B330A9008530A80086
:1006C800072C02307302AA3003197202031C6D2B27
:1006D8006E2B802B00304001AF000030AE0003309D
:1006E800AD00E630AC000030AB000B30AA00F430AF
:1006F800A900B830A800072C02307302393003195A
:100708007202031C882B892B9B2B00304001AF0001
:100718000030AE000330AD008930AC000030AB00D3
:100728000A30AA00FB30A9002930A800072C0130A4
:100738007302C93003197202031CA32BA42BB62B16
:1007480000304001AF000030AE000330AD00903003
:10075800AC000030AB000B30AA000830A900C33051
:10076800A800072C01307302643003197202031CBD
:10077800BE2BBF2BD12B00304001AF000030AE00A4
:100788000330AD00F230AC000030AB000B30AA00F3
:10079800B430A9004830A800072C013073020F308C
:1007A80003197202031CD92BDA2BEC2B0030400101
:1007B800AF000030AE000430AD00B530AC00003002
:1007C800AB000C30AA00C130A9007B30A800072C70
:1007D80000307302CC3003197202031CF42BF52B82
:1007E800072C00304001AF000030AE000530AD00EE
:1007F800F130AC000030AB000E30AA000D30A9007B
:100808000A30A800072C080040013E083F040319DD
:100818000E2C0F2C242C02307B06031D142C152CB7
:10082800242C0130BE020030BF3B0310991F031473
:1008380003181F2C222C40019917242C40019913CE
:100848003C083D040319292C2A2C342C03307B0640
:10085800031D2F2C302C342C0130BC020030BD3B42
:100868003A083B040319392C3A2C3E2C0130BA02C1
:100878000030BB3B380839040319432C442C482C5E
:100888000130B8020030B93B08000030F5000030F4
:10089800F4000030F3000030F2004001431C552CF6
:1008A800562C5E2C4708F2074808F33D4908F43DEA
:1008B8004A08F53D0130C735C80DC90DCA0D890B69
:1008C8005F2C0130C636C50CC40CC30C890B662CD2
:1008D8004608450444044304031D732C742C512C0E
:1008E8007508C6007408C5007308C4007208C30000
:1008F80008004001C500942C05308531102584314D
:1009080073084001C7007208C600A42C0E30853158
:100918001025843173084001C7007208C600A42C52
:100928004508C300C4014408003A03199C2CA42CB0
:100938004308013A0319802C033A03198A2CA42C82
:100948004708F7004608F600080040019801990199
:100958009A013B30920060309300FF309400FF30E2
:100968007E01CE00D030C3003730B800C401B901D1
:10097800CF01BA01C501D0013F30BB00C6013F30ED
:10098800D1003F30BC00C7013F30D2000F309C007F
:100998000D307D01CB000800083042019F00103067
:1009A8009D0024309E0019309B009C010030F2000D
:1009B8000030F30085318F2584310030F20000309B
:1009C800F3008531892584310030F2000030F300CE
:1009D8008531952584314001C201080044018F0109
:1009E80090010430910086308D00E8308C000D08AD
:1009F8004001D90044010C084001D8004E011010F4
:100A08001A149B30F2000530F300853183258431B8
:100A1800013044018E000800F5007508F400F40D5B
:100A2800F40D41011D087406033974069D001D1458
:100A3800000041019D149D18222D232D1F2D1C08F7
:100A4800F3001B08F20008004E011010400159087D
:100A5800F1005808F00085315225853140015608CB
:100A680057040319382D392D3E2D57088A0056088A
:100A78000A008531080085316D2585318431A92426
:100A880085318531632585318431F224853185317D
:100A9800752585318431D0248531080044010E1D27
:100AA800562D572D5E2D0E1071088D0070088C0084
:100AB8000E14622D71088D0070088C0008006230D9
:100AC80051018D008F019101023093009001920134
:100AD80008004F0196019701980199019A019B011D
:100AE8000800013041019D0080309E009B019C015F
:100AF8000800640080010131890B7E2D00347308E1
:100B08004001D7007208D600080073084001D300DE
:100B18007208D200080073084001D5007208D4009A
:100B2800080073084001D1007208D00008000800CE
:020000040001F9
:0A000E00EC3FFF3F9F3FFF3FFF3F25
:00000001FF
